{
  "contractName": "ERC20Capped",
  "abi": [
    {
      "constant": false,
      "inputs": [
        {
          "name": "spender",
          "type": "address"
        },
        {
          "name": "value",
          "type": "uint256"
        }
      ],
      "name": "approve",
      "outputs": [
        {
          "name": "",
          "type": "bool"
        }
      ],
      "payable": false,
      "stateMutability": "nonpayable",
      "type": "function"
    },
    {
      "constant": true,
      "inputs": [],
      "name": "totalSupply",
      "outputs": [
        {
          "name": "",
          "type": "uint256"
        }
      ],
      "payable": false,
      "stateMutability": "view",
      "type": "function"
    },
    {
      "constant": false,
      "inputs": [
        {
          "name": "from",
          "type": "address"
        },
        {
          "name": "to",
          "type": "address"
        },
        {
          "name": "value",
          "type": "uint256"
        }
      ],
      "name": "transferFrom",
      "outputs": [
        {
          "name": "",
          "type": "bool"
        }
      ],
      "payable": false,
      "stateMutability": "nonpayable",
      "type": "function"
    },
    {
      "constant": false,
      "inputs": [
        {
          "name": "spender",
          "type": "address"
        },
        {
          "name": "addedValue",
          "type": "uint256"
        }
      ],
      "name": "increaseAllowance",
      "outputs": [
        {
          "name": "",
          "type": "bool"
        }
      ],
      "payable": false,
      "stateMutability": "nonpayable",
      "type": "function"
    },
    {
      "constant": false,
      "inputs": [
        {
          "name": "to",
          "type": "address"
        },
        {
          "name": "value",
          "type": "uint256"
        }
      ],
      "name": "mint",
      "outputs": [
        {
          "name": "",
          "type": "bool"
        }
      ],
      "payable": false,
      "stateMutability": "nonpayable",
      "type": "function"
    },
    {
      "constant": true,
      "inputs": [
        {
          "name": "owner",
          "type": "address"
        }
      ],
      "name": "balanceOf",
      "outputs": [
        {
          "name": "",
          "type": "uint256"
        }
      ],
      "payable": false,
      "stateMutability": "view",
      "type": "function"
    },
    {
      "constant": false,
      "inputs": [
        {
          "name": "account",
          "type": "address"
        }
      ],
      "name": "addMinter",
      "outputs": [],
      "payable": false,
      "stateMutability": "nonpayable",
      "type": "function"
    },
    {
      "constant": false,
      "inputs": [],
      "name": "renounceMinter",
      "outputs": [],
      "payable": false,
      "stateMutability": "nonpayable",
      "type": "function"
    },
    {
      "constant": false,
      "inputs": [
        {
          "name": "spender",
          "type": "address"
        },
        {
          "name": "subtractedValue",
          "type": "uint256"
        }
      ],
      "name": "decreaseAllowance",
      "outputs": [
        {
          "name": "",
          "type": "bool"
        }
      ],
      "payable": false,
      "stateMutability": "nonpayable",
      "type": "function"
    },
    {
      "constant": false,
      "inputs": [
        {
          "name": "to",
          "type": "address"
        },
        {
          "name": "value",
          "type": "uint256"
        }
      ],
      "name": "transfer",
      "outputs": [
        {
          "name": "",
          "type": "bool"
        }
      ],
      "payable": false,
      "stateMutability": "nonpayable",
      "type": "function"
    },
    {
      "constant": true,
      "inputs": [
        {
          "name": "account",
          "type": "address"
        }
      ],
      "name": "isMinter",
      "outputs": [
        {
          "name": "",
          "type": "bool"
        }
      ],
      "payable": false,
      "stateMutability": "view",
      "type": "function"
    },
    {
      "constant": true,
      "inputs": [
        {
          "name": "owner",
          "type": "address"
        },
        {
          "name": "spender",
          "type": "address"
        }
      ],
      "name": "allowance",
      "outputs": [
        {
          "name": "",
          "type": "uint256"
        }
      ],
      "payable": false,
      "stateMutability": "view",
      "type": "function"
    },
    {
      "inputs": [
        {
          "name": "cap",
          "type": "uint256"
        }
      ],
      "payable": false,
      "stateMutability": "nonpayable",
      "type": "constructor"
    },
    {
      "anonymous": false,
      "inputs": [
        {
          "indexed": true,
          "name": "account",
          "type": "address"
        }
      ],
      "name": "MinterAdded",
      "type": "event"
    },
    {
      "anonymous": false,
      "inputs": [
        {
          "indexed": true,
          "name": "account",
          "type": "address"
        }
      ],
      "name": "MinterRemoved",
      "type": "event"
    },
    {
      "anonymous": false,
      "inputs": [
        {
          "indexed": true,
          "name": "from",
          "type": "address"
        },
        {
          "indexed": true,
          "name": "to",
          "type": "address"
        },
        {
          "indexed": false,
          "name": "value",
          "type": "uint256"
        }
      ],
      "name": "Transfer",
      "type": "event"
    },
    {
      "anonymous": false,
      "inputs": [
        {
          "indexed": true,
          "name": "owner",
          "type": "address"
        },
        {
          "indexed": true,
          "name": "spender",
          "type": "address"
        },
        {
          "indexed": false,
          "name": "value",
          "type": "uint256"
        }
      ],
      "name": "Approval",
      "type": "event"
    },
    {
      "constant": true,
      "inputs": [],
      "name": "cap",
      "outputs": [
        {
          "name": "",
          "type": "uint256"
        }
      ],
      "payable": false,
      "stateMutability": "view",
      "type": "function"
    }
  ],
  "bytecode": "0x608060405234801561001057600080fd5b50604051602080610a3c833981016040525161003433640100000000610049810204565b6000811161004157600080fd5b600455610126565b61006160038264010000000061084161009882021704565b604051600160a060020a038216907f6ae172837ea30b801fbfcdd4108aa1d5bf8ff775444fd70256b44e6bf3dfc3f690600090a250565b600160a060020a03811615156100ad57600080fd5b6100c082826401000000006100ef810204565b156100ca57600080fd5b600160a060020a0316600090815260209190915260409020805460ff19166001179055565b6000600160a060020a038216151561010657600080fd5b50600160a060020a03166000908152602091909152604090205460ff1690565b610907806101356000396000f3006080604052600436106100c45763ffffffff7c0100000000000000000000000000000000000000000000000000000000600035041663095ea7b381146100c957806318160ddd1461010157806323b872dd14610128578063355274ea14610152578063395093511461016757806340c10f191461018b57806370a08231146101af578063983b2d56146101d057806398650275146101f3578063a457c2d714610208578063a9059cbb1461022c578063aa271e1a14610250578063dd62ed3e14610271575b600080fd5b3480156100d557600080fd5b506100ed600160a060020a0360043516602435610298565b604080519115158252519081900360200190f35b34801561010d57600080fd5b50610116610316565b60408051918252519081900360200190f35b34801561013457600080fd5b506100ed600160a060020a036004358116906024351660443561031c565b34801561015e57600080fd5b506101166103b9565b34801561017357600080fd5b506100ed600160a060020a03600435166024356103bf565b34801561019757600080fd5b506100ed600160a060020a036004351660243561046f565b3480156101bb57600080fd5b50610116600160a060020a0360043516610498565b3480156101dc57600080fd5b506101f1600160a060020a03600435166104b3565b005b3480156101ff57600080fd5b506101f16104d3565b34801561021457600080fd5b506100ed600160a060020a03600435166024356104de565b34801561023857600080fd5b506100ed600160a060020a0360043516602435610529565b34801561025c57600080fd5b506100ed600160a060020a0360043516610536565b34801561027d57600080fd5b50610116600160a060020a036004358116906024351661054f565b6000600160a060020a03831615156102af57600080fd5b336000818152600160209081526040808320600160a060020a03881680855290835292819020869055805186815290519293927f8c5be1e5ebec7d5bd14f71427d1e84f3dd0314c0f7b2291e5b200ac8c7c3b925929181900390910190a350600192915050565b60025490565b600160a060020a038316600090815260016020908152604080832033845290915281205482111561034c57600080fd5b600160a060020a0384166000908152600160209081526040808320338452909152902054610380908363ffffffff61057a16565b600160a060020a03851660009081526001602090815260408083203384529091529020556103af848484610591565b5060019392505050565b60045490565b6000600160a060020a03831615156103d657600080fd5b336000908152600160209081526040808320600160a060020a038716845290915290205461040a908363ffffffff61068316565b336000818152600160209081526040808320600160a060020a0389168085529083529281902085905580519485525191937f8c5be1e5ebec7d5bd14f71427d1e84f3dd0314c0f7b2291e5b200ac8c7c3b925929081900390910190a350600192915050565b600061047a33610536565b151561048557600080fd5b61048f838361069c565b50600192915050565b600160a060020a031660009081526020819052604090205490565b6104bc33610536565b15156104c757600080fd5b6104d0816106d0565b50565b6104dc33610718565b565b6000600160a060020a03831615156104f557600080fd5b336000908152600160209081526040808320600160a060020a038716845290915290205461040a908363ffffffff61057a16565b600061048f338484610591565b600061054960038363ffffffff61076016565b92915050565b600160a060020a03918216600090815260016020908152604080832093909416825291909152205490565b6000808383111561058a57600080fd5b5050900390565b600160a060020a0383166000908152602081905260409020548111156105b657600080fd5b600160a060020a03821615156105cb57600080fd5b600160a060020a0383166000908152602081905260409020546105f4908263ffffffff61057a16565b600160a060020a038085166000908152602081905260408082209390935590841681522054610629908263ffffffff61068316565b600160a060020a038084166000818152602081815260409182902094909455805185815290519193928716927fddf252ad1be2c89b69c2b068fc378daa952ba7f163c4a11628f55a4df523b3ef92918290030190a3505050565b60008282018381101561069557600080fd5b9392505050565b6004546106b7826106ab610316565b9063ffffffff61068316565b11156106c257600080fd5b6106cc8282610797565b5050565b6106e160038263ffffffff61084116565b604051600160a060020a038216907f6ae172837ea30b801fbfcdd4108aa1d5bf8ff775444fd70256b44e6bf3dfc3f690600090a250565b61072960038263ffffffff61088f16565b604051600160a060020a038216907fe94479a9f7e1952cc78f2d6baab678adc1b772d936c6583def489e524cb6669290600090a250565b6000600160a060020a038216151561077757600080fd5b50600160a060020a03166000908152602091909152604090205460ff1690565b600160a060020a03821615156107ac57600080fd5b6002546107bf908263ffffffff61068316565b600255600160a060020a0382166000908152602081905260409020546107eb908263ffffffff61068316565b600160a060020a0383166000818152602081815260408083209490945583518581529351929391927fddf252ad1be2c89b69c2b068fc378daa952ba7f163c4a11628f55a4df523b3ef9281900390910190a35050565b600160a060020a038116151561085657600080fd5b6108608282610760565b1561086a57600080fd5b600160a060020a0316600090815260209190915260409020805460ff19166001179055565b600160a060020a03811615156108a457600080fd5b6108ae8282610760565b15156108b957600080fd5b600160a060020a0316600090815260209190915260409020805460ff191690555600a165627a7a7230582019c9cd2df93704051f96e2e80892f1ccf9a857e7d7f873797906fef757c08b360029",
  "source": "pragma solidity ^0.4.24;\r\n\r\nimport \"./ERC20Mintable.sol\";\r\n\r\n/**\r\n * @title Capped token\r\n * @dev Mintable token with a token cap.\r\n */\r\ncontract ERC20Capped is ERC20Mintable {\r\n\r\n  uint256 private _cap;\r\n\r\n  constructor(uint256 cap)\r\n    public\r\n  {\r\n    require(cap > 0);\r\n    _cap = cap;\r\n  }\r\n\r\n  /**\r\n   * @return the cap for the token minting.\r\n   */\r\n  function cap() public view returns(uint256) {\r\n    return _cap;\r\n  }\r\n\r\n  function _mint(address account, uint256 value) internal {\r\n    require(totalSupply().add(value) <= _cap);\r\n    super._mint(account, value);\r\n  }\r\n}\r\n",
  "sourcePath": "C:\\Users\\Veronica Coutts\\Desktop\\Desktop\\Work\\LinumLabs\\proteav2\\contracts\\contracts\\openzeppelin-solidity\\token\\ERC20\\ERC20Capped.sol",
  "compiler": {
    "name": "solc",
    "version": "0.4.24+commit.e67f0147.Emscripten.clang"
  },
  "schemaVersion": "2.0.1",
  "updatedAt": "2018-11-26T15:38:45.532Z"
}