{
  "contractName": "ERC20Pausable",
  "abi": [
    {
      "constant": true,
      "inputs": [],
      "name": "totalSupply",
      "outputs": [
        {
          "name": "",
          "type": "uint256"
        }
      ],
      "payable": false,
      "stateMutability": "view",
      "type": "function"
    },
    {
      "constant": false,
      "inputs": [],
      "name": "unpause",
      "outputs": [],
      "payable": false,
      "stateMutability": "nonpayable",
      "type": "function"
    },
    {
      "constant": true,
      "inputs": [
        {
          "name": "account",
          "type": "address"
        }
      ],
      "name": "isPauser",
      "outputs": [
        {
          "name": "",
          "type": "bool"
        }
      ],
      "payable": false,
      "stateMutability": "view",
      "type": "function"
    },
    {
      "constant": true,
      "inputs": [],
      "name": "paused",
      "outputs": [
        {
          "name": "",
          "type": "bool"
        }
      ],
      "payable": false,
      "stateMutability": "view",
      "type": "function"
    },
    {
      "constant": false,
      "inputs": [],
      "name": "renouncePauser",
      "outputs": [],
      "payable": false,
      "stateMutability": "nonpayable",
      "type": "function"
    },
    {
      "constant": true,
      "inputs": [
        {
          "name": "owner",
          "type": "address"
        }
      ],
      "name": "balanceOf",
      "outputs": [
        {
          "name": "",
          "type": "uint256"
        }
      ],
      "payable": false,
      "stateMutability": "view",
      "type": "function"
    },
    {
      "constant": false,
      "inputs": [
        {
          "name": "account",
          "type": "address"
        }
      ],
      "name": "addPauser",
      "outputs": [],
      "payable": false,
      "stateMutability": "nonpayable",
      "type": "function"
    },
    {
      "constant": false,
      "inputs": [],
      "name": "pause",
      "outputs": [],
      "payable": false,
      "stateMutability": "nonpayable",
      "type": "function"
    },
    {
      "constant": true,
      "inputs": [
        {
          "name": "owner",
          "type": "address"
        },
        {
          "name": "spender",
          "type": "address"
        }
      ],
      "name": "allowance",
      "outputs": [
        {
          "name": "",
          "type": "uint256"
        }
      ],
      "payable": false,
      "stateMutability": "view",
      "type": "function"
    },
    {
      "anonymous": false,
      "inputs": [
        {
          "indexed": false,
          "name": "account",
          "type": "address"
        }
      ],
      "name": "Paused",
      "type": "event"
    },
    {
      "anonymous": false,
      "inputs": [
        {
          "indexed": false,
          "name": "account",
          "type": "address"
        }
      ],
      "name": "Unpaused",
      "type": "event"
    },
    {
      "anonymous": false,
      "inputs": [
        {
          "indexed": true,
          "name": "account",
          "type": "address"
        }
      ],
      "name": "PauserAdded",
      "type": "event"
    },
    {
      "anonymous": false,
      "inputs": [
        {
          "indexed": true,
          "name": "account",
          "type": "address"
        }
      ],
      "name": "PauserRemoved",
      "type": "event"
    },
    {
      "anonymous": false,
      "inputs": [
        {
          "indexed": true,
          "name": "from",
          "type": "address"
        },
        {
          "indexed": true,
          "name": "to",
          "type": "address"
        },
        {
          "indexed": false,
          "name": "value",
          "type": "uint256"
        }
      ],
      "name": "Transfer",
      "type": "event"
    },
    {
      "anonymous": false,
      "inputs": [
        {
          "indexed": true,
          "name": "owner",
          "type": "address"
        },
        {
          "indexed": true,
          "name": "spender",
          "type": "address"
        },
        {
          "indexed": false,
          "name": "value",
          "type": "uint256"
        }
      ],
      "name": "Approval",
      "type": "event"
    },
    {
      "constant": false,
      "inputs": [
        {
          "name": "to",
          "type": "address"
        },
        {
          "name": "value",
          "type": "uint256"
        }
      ],
      "name": "transfer",
      "outputs": [
        {
          "name": "",
          "type": "bool"
        }
      ],
      "payable": false,
      "stateMutability": "nonpayable",
      "type": "function"
    },
    {
      "constant": false,
      "inputs": [
        {
          "name": "from",
          "type": "address"
        },
        {
          "name": "to",
          "type": "address"
        },
        {
          "name": "value",
          "type": "uint256"
        }
      ],
      "name": "transferFrom",
      "outputs": [
        {
          "name": "",
          "type": "bool"
        }
      ],
      "payable": false,
      "stateMutability": "nonpayable",
      "type": "function"
    },
    {
      "constant": false,
      "inputs": [
        {
          "name": "spender",
          "type": "address"
        },
        {
          "name": "value",
          "type": "uint256"
        }
      ],
      "name": "approve",
      "outputs": [
        {
          "name": "",
          "type": "bool"
        }
      ],
      "payable": false,
      "stateMutability": "nonpayable",
      "type": "function"
    },
    {
      "constant": false,
      "inputs": [
        {
          "name": "spender",
          "type": "address"
        },
        {
          "name": "addedValue",
          "type": "uint256"
        }
      ],
      "name": "increaseAllowance",
      "outputs": [
        {
          "name": "success",
          "type": "bool"
        }
      ],
      "payable": false,
      "stateMutability": "nonpayable",
      "type": "function"
    },
    {
      "constant": false,
      "inputs": [
        {
          "name": "spender",
          "type": "address"
        },
        {
          "name": "subtractedValue",
          "type": "uint256"
        }
      ],
      "name": "decreaseAllowance",
      "outputs": [
        {
          "name": "success",
          "type": "bool"
        }
      ],
      "payable": false,
      "stateMutability": "nonpayable",
      "type": "function"
    }
  ],
  "bytecode": "0x608060405261001633640100000000610025810204565b6004805460ff19169055610102565b61003d60038264010000000061090761007482021704565b604051600160a060020a038216907f6719d08c1888103bea251a4ed56406bd0c3e69723c8a1686e017e7bbe159b6f890600090a250565b600160a060020a038116151561008957600080fd5b61009c82826401000000006100cb810204565b156100a657600080fd5b600160a060020a0316600090815260209190915260409020805460ff19166001179055565b6000600160a060020a03821615156100e257600080fd5b50600160a060020a03166000908152602091909152604090205460ff1690565b610981806101116000396000f3006080604052600436106100cf5763ffffffff7c0100000000000000000000000000000000000000000000000000000000600035041663095ea7b381146100d457806318160ddd1461010c57806323b872dd14610133578063395093511461015d5780633f4ba83a1461018157806346fbf68e146101985780635c975abb146101b95780636ef8d66d146101ce57806370a08231146101e357806382dc1ec4146102045780638456cb5914610225578063a457c2d71461023a578063a9059cbb1461025e578063dd62ed3e14610282575b600080fd5b3480156100e057600080fd5b506100f8600160a060020a03600435166024356102a9565b604080519115158252519081900360200190f35b34801561011857600080fd5b506101216102cd565b60408051918252519081900360200190f35b34801561013f57600080fd5b506100f8600160a060020a03600435811690602435166044356102d3565b34801561016957600080fd5b506100f8600160a060020a03600435166024356102f9565b34801561018d57600080fd5b50610196610316565b005b3480156101a457600080fd5b506100f8600160a060020a036004351661037a565b3480156101c557600080fd5b506100f8610393565b3480156101da57600080fd5b5061019661039c565b3480156101ef57600080fd5b50610121600160a060020a03600435166103a7565b34801561021057600080fd5b50610196600160a060020a03600435166103c2565b34801561023157600080fd5b506101966103e2565b34801561024657600080fd5b506100f8600160a060020a0360043516602435610448565b34801561026a57600080fd5b506100f8600160a060020a0360043516602435610465565b34801561028e57600080fd5b50610121600160a060020a0360043581169060243516610482565b60045460009060ff16156102bc57600080fd5b6102c683836104ad565b9392505050565b60025490565b60045460009060ff16156102e657600080fd5b6102f184848461052b565b949350505050565b60045460009060ff161561030c57600080fd5b6102c683836105c8565b61031f3361037a565b151561032a57600080fd5b60045460ff16151561033b57600080fd5b6004805460ff191690556040805133815290517f5db9ee0a495bf2e6ff9c91a7834c1ba4fdd244a5e8aa4e537bd38aeae4b073aa9181900360200190a1565b600061038d60038363ffffffff61067816565b92915050565b60045460ff1690565b6103a5336106af565b565b600160a060020a031660009081526020819052604090205490565b6103cb3361037a565b15156103d657600080fd5b6103df816106f7565b50565b6103eb3361037a565b15156103f657600080fd5b60045460ff161561040657600080fd5b6004805460ff191660011790556040805133815290517f62e78cea01bee320cd4e420270b5ea74000d11b0c9f74754ebdbfc544b05a2589181900360200190a1565b60045460009060ff161561045b57600080fd5b6102c6838361073f565b60045460009060ff161561047857600080fd5b6102c6838361078a565b600160a060020a03918216600090815260016020908152604080832093909416825291909152205490565b6000600160a060020a03831615156104c457600080fd5b336000818152600160209081526040808320600160a060020a03881680855290835292819020869055805186815290519293927f8c5be1e5ebec7d5bd14f71427d1e84f3dd0314c0f7b2291e5b200ac8c7c3b925929181900390910190a350600192915050565b600160a060020a038316600090815260016020908152604080832033845290915281205482111561055b57600080fd5b600160a060020a038416600090815260016020908152604080832033845290915290205461058f908363ffffffff6107a016565b600160a060020a03851660009081526001602090815260408083203384529091529020556105be8484846107b7565b5060019392505050565b6000600160a060020a03831615156105df57600080fd5b336000908152600160209081526040808320600160a060020a0387168452909152902054610613908363ffffffff6108a916565b336000818152600160209081526040808320600160a060020a0389168085529083529281902085905580519485525191937f8c5be1e5ebec7d5bd14f71427d1e84f3dd0314c0f7b2291e5b200ac8c7c3b925929081900390910190a350600192915050565b6000600160a060020a038216151561068f57600080fd5b50600160a060020a03166000908152602091909152604090205460ff1690565b6106c060038263ffffffff6108bb16565b604051600160a060020a038216907fcd265ebaf09df2871cc7bd4133404a235ba12eff2041bb89d9c714a2621c7c7e90600090a250565b61070860038263ffffffff61090716565b604051600160a060020a038216907f6719d08c1888103bea251a4ed56406bd0c3e69723c8a1686e017e7bbe159b6f890600090a250565b6000600160a060020a038316151561075657600080fd5b336000908152600160209081526040808320600160a060020a0387168452909152902054610613908363ffffffff6107a016565b60006107973384846107b7565b50600192915050565b600080838311156107b057600080fd5b5050900390565b600160a060020a0383166000908152602081905260409020548111156107dc57600080fd5b600160a060020a03821615156107f157600080fd5b600160a060020a03831660009081526020819052604090205461081a908263ffffffff6107a016565b600160a060020a03808516600090815260208190526040808220939093559084168152205461084f908263ffffffff6108a916565b600160a060020a038084166000818152602081815260409182902094909455805185815290519193928716927fddf252ad1be2c89b69c2b068fc378daa952ba7f163c4a11628f55a4df523b3ef92918290030190a3505050565b6000828201838110156102c657600080fd5b600160a060020a03811615156108d057600080fd5b6108da8282610678565b15156108e557600080fd5b600160a060020a0316600090815260209190915260409020805460ff19169055565b600160a060020a038116151561091c57600080fd5b6109268282610678565b1561093057600080fd5b600160a060020a0316600090815260209190915260409020805460ff191660011790555600a165627a7a72305820bd9df857d47103053eb7aa2f1039da49c1418936c03e6c30d6785983a16ceaee0029",
  "source": "pragma solidity ^0.4.24;\r\n\r\nimport \"./ERC20.sol\";\r\nimport \"../../lifecycle/Pausable.sol\";\r\n\r\n/**\r\n * @title Pausable token\r\n * @dev ERC20 modified with pausable transfers.\r\n **/\r\ncontract ERC20Pausable is ERC20, Pausable {\r\n\r\n  function transfer(\r\n    address to,\r\n    uint256 value\r\n  )\r\n    public\r\n    whenNotPaused\r\n    returns (bool)\r\n  {\r\n    return super.transfer(to, value);\r\n  }\r\n\r\n  function transferFrom(\r\n    address from,\r\n    address to,\r\n    uint256 value\r\n  )\r\n    public\r\n    whenNotPaused\r\n    returns (bool)\r\n  {\r\n    return super.transferFrom(from, to, value);\r\n  }\r\n\r\n  function approve(\r\n    address spender,\r\n    uint256 value\r\n  )\r\n    public\r\n    whenNotPaused\r\n    returns (bool)\r\n  {\r\n    return super.approve(spender, value);\r\n  }\r\n\r\n  function increaseAllowance(\r\n    address spender,\r\n    uint addedValue\r\n  )\r\n    public\r\n    whenNotPaused\r\n    returns (bool success)\r\n  {\r\n    return super.increaseAllowance(spender, addedValue);\r\n  }\r\n\r\n  function decreaseAllowance(\r\n    address spender,\r\n    uint subtractedValue\r\n  )\r\n    public\r\n    whenNotPaused\r\n    returns (bool success)\r\n  {\r\n    return super.decreaseAllowance(spender, subtractedValue);\r\n  }\r\n}\r\n",
  "sourcePath": "C:\\Users\\Veronica Coutts\\Desktop\\Desktop\\Work\\LinumLabs\\proteav2\\contracts\\contracts\\openzeppelin-solidity\\token\\ERC20\\ERC20Pausable.sol",
  "compiler": {
    "name": "solc",
    "version": "0.4.24+commit.e67f0147.Emscripten.clang"
  },
  "schemaVersion": "2.0.1",
  "updatedAt": "2018-11-26T15:38:45.533Z"
}