{
  "contractName": "ERC20Burnable",
  "abi": [
    {
      "constant": false,
      "inputs": [
        {
          "name": "spender",
          "type": "address"
        },
        {
          "name": "value",
          "type": "uint256"
        }
      ],
      "name": "approve",
      "outputs": [
        {
          "name": "",
          "type": "bool"
        }
      ],
      "payable": false,
      "stateMutability": "nonpayable",
      "type": "function"
    },
    {
      "constant": true,
      "inputs": [],
      "name": "totalSupply",
      "outputs": [
        {
          "name": "",
          "type": "uint256"
        }
      ],
      "payable": false,
      "stateMutability": "view",
      "type": "function"
    },
    {
      "constant": false,
      "inputs": [
        {
          "name": "from",
          "type": "address"
        },
        {
          "name": "to",
          "type": "address"
        },
        {
          "name": "value",
          "type": "uint256"
        }
      ],
      "name": "transferFrom",
      "outputs": [
        {
          "name": "",
          "type": "bool"
        }
      ],
      "payable": false,
      "stateMutability": "nonpayable",
      "type": "function"
    },
    {
      "constant": false,
      "inputs": [
        {
          "name": "spender",
          "type": "address"
        },
        {
          "name": "addedValue",
          "type": "uint256"
        }
      ],
      "name": "increaseAllowance",
      "outputs": [
        {
          "name": "",
          "type": "bool"
        }
      ],
      "payable": false,
      "stateMutability": "nonpayable",
      "type": "function"
    },
    {
      "constant": true,
      "inputs": [
        {
          "name": "owner",
          "type": "address"
        }
      ],
      "name": "balanceOf",
      "outputs": [
        {
          "name": "",
          "type": "uint256"
        }
      ],
      "payable": false,
      "stateMutability": "view",
      "type": "function"
    },
    {
      "constant": false,
      "inputs": [
        {
          "name": "spender",
          "type": "address"
        },
        {
          "name": "subtractedValue",
          "type": "uint256"
        }
      ],
      "name": "decreaseAllowance",
      "outputs": [
        {
          "name": "",
          "type": "bool"
        }
      ],
      "payable": false,
      "stateMutability": "nonpayable",
      "type": "function"
    },
    {
      "constant": false,
      "inputs": [
        {
          "name": "to",
          "type": "address"
        },
        {
          "name": "value",
          "type": "uint256"
        }
      ],
      "name": "transfer",
      "outputs": [
        {
          "name": "",
          "type": "bool"
        }
      ],
      "payable": false,
      "stateMutability": "nonpayable",
      "type": "function"
    },
    {
      "constant": true,
      "inputs": [
        {
          "name": "owner",
          "type": "address"
        },
        {
          "name": "spender",
          "type": "address"
        }
      ],
      "name": "allowance",
      "outputs": [
        {
          "name": "",
          "type": "uint256"
        }
      ],
      "payable": false,
      "stateMutability": "view",
      "type": "function"
    },
    {
      "anonymous": false,
      "inputs": [
        {
          "indexed": true,
          "name": "from",
          "type": "address"
        },
        {
          "indexed": true,
          "name": "to",
          "type": "address"
        },
        {
          "indexed": false,
          "name": "value",
          "type": "uint256"
        }
      ],
      "name": "Transfer",
      "type": "event"
    },
    {
      "anonymous": false,
      "inputs": [
        {
          "indexed": true,
          "name": "owner",
          "type": "address"
        },
        {
          "indexed": true,
          "name": "spender",
          "type": "address"
        },
        {
          "indexed": false,
          "name": "value",
          "type": "uint256"
        }
      ],
      "name": "Approval",
      "type": "event"
    },
    {
      "constant": false,
      "inputs": [
        {
          "name": "value",
          "type": "uint256"
        }
      ],
      "name": "burn",
      "outputs": [],
      "payable": false,
      "stateMutability": "nonpayable",
      "type": "function"
    },
    {
      "constant": false,
      "inputs": [
        {
          "name": "from",
          "type": "address"
        },
        {
          "name": "value",
          "type": "uint256"
        }
      ],
      "name": "burnFrom",
      "outputs": [],
      "payable": false,
      "stateMutability": "nonpayable",
      "type": "function"
    }
  ],
  "bytecode": "0x608060405234801561001057600080fd5b50610764806100206000396000f3006080604052600436106100a35763ffffffff7c0100000000000000000000000000000000000000000000000000000000600035041663095ea7b381146100a857806318160ddd146100e057806323b872dd14610107578063395093511461013157806342966c681461015557806370a082311461016f57806379cc679014610190578063a457c2d7146101b4578063a9059cbb146101d8578063dd62ed3e146101fc575b600080fd5b3480156100b457600080fd5b506100cc600160a060020a0360043516602435610223565b604080519115158252519081900360200190f35b3480156100ec57600080fd5b506100f56102a1565b60408051918252519081900360200190f35b34801561011357600080fd5b506100cc600160a060020a03600435811690602435166044356102a7565b34801561013d57600080fd5b506100cc600160a060020a0360043516602435610344565b34801561016157600080fd5b5061016d6004356103f4565b005b34801561017b57600080fd5b506100f5600160a060020a0360043516610401565b34801561019c57600080fd5b5061016d600160a060020a036004351660243561041c565b3480156101c057600080fd5b506100cc600160a060020a036004351660243561042a565b3480156101e457600080fd5b506100cc600160a060020a0360043516602435610475565b34801561020857600080fd5b506100f5600160a060020a036004358116906024351661048b565b6000600160a060020a038316151561023a57600080fd5b336000818152600160209081526040808320600160a060020a03881680855290835292819020869055805186815290519293927f8c5be1e5ebec7d5bd14f71427d1e84f3dd0314c0f7b2291e5b200ac8c7c3b925929181900390910190a350600192915050565b60025490565b600160a060020a03831660009081526001602090815260408083203384529091528120548211156102d757600080fd5b600160a060020a038416600090815260016020908152604080832033845290915290205461030b908363ffffffff6104b616565b600160a060020a038516600090815260016020908152604080832033845290915290205561033a8484846104cd565b5060019392505050565b6000600160a060020a038316151561035b57600080fd5b336000908152600160209081526040808320600160a060020a038716845290915290205461038f908363ffffffff6105bf16565b336000818152600160209081526040808320600160a060020a0389168085529083529281902085905580519485525191937f8c5be1e5ebec7d5bd14f71427d1e84f3dd0314c0f7b2291e5b200ac8c7c3b925929081900390910190a350600192915050565b6103fe33826105d8565b50565b600160a060020a031660009081526020819052604090205490565b61042682826106a6565b5050565b6000600160a060020a038316151561044157600080fd5b336000908152600160209081526040808320600160a060020a038716845290915290205461038f908363ffffffff6104b616565b60006104823384846104cd565b50600192915050565b600160a060020a03918216600090815260016020908152604080832093909416825291909152205490565b600080838311156104c657600080fd5b5050900390565b600160a060020a0383166000908152602081905260409020548111156104f257600080fd5b600160a060020a038216151561050757600080fd5b600160a060020a038316600090815260208190526040902054610530908263ffffffff6104b616565b600160a060020a038085166000908152602081905260408082209390935590841681522054610565908263ffffffff6105bf16565b600160a060020a038084166000818152602081815260409182902094909455805185815290519193928716927fddf252ad1be2c89b69c2b068fc378daa952ba7f163c4a11628f55a4df523b3ef92918290030190a3505050565b6000828201838110156105d157600080fd5b9392505050565b600160a060020a03821615156105ed57600080fd5b600160a060020a03821660009081526020819052604090205481111561061257600080fd5b600254610625908263ffffffff6104b616565b600255600160a060020a038216600090815260208190526040902054610651908263ffffffff6104b616565b600160a060020a038316600081815260208181526040808320949094558351858152935191937fddf252ad1be2c89b69c2b068fc378daa952ba7f163c4a11628f55a4df523b3ef929081900390910190a35050565b600160a060020a03821660009081526001602090815260408083203384529091529020548111156106d657600080fd5b600160a060020a038216600090815260016020908152604080832033845290915290205461070a908263ffffffff6104b616565b600160a060020a038316600090815260016020908152604080832033845290915290205561042682826105d85600a165627a7a72305820ff5462f8a910e736fddbd73b27bd2390bcbb031b01a086cb40184b5c0e00f3400029",
  "source": "pragma solidity ^0.4.24;\r\n\r\nimport \"./ERC20.sol\";\r\n\r\n/**\r\n * @title Burnable Token\r\n * @dev Token that can be irreversibly burned (destroyed).\r\n */\r\ncontract ERC20Burnable is ERC20 {\r\n\r\n  /**\r\n   * @dev Burns a specific amount of tokens.\r\n   * @param value The amount of token to be burned.\r\n   */\r\n  function burn(uint256 value) public {\r\n    _burn(msg.sender, value);\r\n  }\r\n\r\n  /**\r\n   * @dev Burns a specific amount of tokens from the target address and decrements allowance\r\n   * @param from address The address which you want to send tokens from\r\n   * @param value uint256 The amount of token to be burned\r\n   */\r\n  function burnFrom(address from, uint256 value) public {\r\n    _burnFrom(from, value);\r\n  }\r\n}\r\n",
  "sourcePath": "C:\\Users\\Veronica Coutts\\Desktop\\Desktop\\Work\\LinumLabs\\proteav2\\contracts\\contracts\\openzeppelin-solidity\\token\\ERC20\\ERC20Burnable.sol",
  "compiler": {
    "name": "solc",
    "version": "0.4.24+commit.e67f0147.Emscripten.clang"
  },
  "schemaVersion": "2.0.1",
  "updatedAt": "2018-11-26T15:38:45.531Z"
}