{
  "contractName": "ERC20",
  "abi": [
    {
      "anonymous": false,
      "inputs": [
        {
          "indexed": true,
          "name": "from",
          "type": "address"
        },
        {
          "indexed": true,
          "name": "to",
          "type": "address"
        },
        {
          "indexed": false,
          "name": "value",
          "type": "uint256"
        }
      ],
      "name": "Transfer",
      "type": "event"
    },
    {
      "anonymous": false,
      "inputs": [
        {
          "indexed": true,
          "name": "owner",
          "type": "address"
        },
        {
          "indexed": true,
          "name": "spender",
          "type": "address"
        },
        {
          "indexed": false,
          "name": "value",
          "type": "uint256"
        }
      ],
      "name": "Approval",
      "type": "event"
    },
    {
      "constant": true,
      "inputs": [],
      "name": "totalSupply",
      "outputs": [
        {
          "name": "",
          "type": "uint256"
        }
      ],
      "payable": false,
      "stateMutability": "view",
      "type": "function"
    },
    {
      "constant": true,
      "inputs": [
        {
          "name": "owner",
          "type": "address"
        }
      ],
      "name": "balanceOf",
      "outputs": [
        {
          "name": "",
          "type": "uint256"
        }
      ],
      "payable": false,
      "stateMutability": "view",
      "type": "function"
    },
    {
      "constant": true,
      "inputs": [
        {
          "name": "owner",
          "type": "address"
        },
        {
          "name": "spender",
          "type": "address"
        }
      ],
      "name": "allowance",
      "outputs": [
        {
          "name": "",
          "type": "uint256"
        }
      ],
      "payable": false,
      "stateMutability": "view",
      "type": "function"
    },
    {
      "constant": false,
      "inputs": [
        {
          "name": "to",
          "type": "address"
        },
        {
          "name": "value",
          "type": "uint256"
        }
      ],
      "name": "transfer",
      "outputs": [
        {
          "name": "",
          "type": "bool"
        }
      ],
      "payable": false,
      "stateMutability": "nonpayable",
      "type": "function"
    },
    {
      "constant": false,
      "inputs": [
        {
          "name": "spender",
          "type": "address"
        },
        {
          "name": "value",
          "type": "uint256"
        }
      ],
      "name": "approve",
      "outputs": [
        {
          "name": "",
          "type": "bool"
        }
      ],
      "payable": false,
      "stateMutability": "nonpayable",
      "type": "function"
    },
    {
      "constant": false,
      "inputs": [
        {
          "name": "from",
          "type": "address"
        },
        {
          "name": "to",
          "type": "address"
        },
        {
          "name": "value",
          "type": "uint256"
        }
      ],
      "name": "transferFrom",
      "outputs": [
        {
          "name": "",
          "type": "bool"
        }
      ],
      "payable": false,
      "stateMutability": "nonpayable",
      "type": "function"
    },
    {
      "constant": false,
      "inputs": [
        {
          "name": "spender",
          "type": "address"
        },
        {
          "name": "addedValue",
          "type": "uint256"
        }
      ],
      "name": "increaseAllowance",
      "outputs": [
        {
          "name": "",
          "type": "bool"
        }
      ],
      "payable": false,
      "stateMutability": "nonpayable",
      "type": "function"
    },
    {
      "constant": false,
      "inputs": [
        {
          "name": "spender",
          "type": "address"
        },
        {
          "name": "subtractedValue",
          "type": "uint256"
        }
      ],
      "name": "decreaseAllowance",
      "outputs": [
        {
          "name": "",
          "type": "bool"
        }
      ],
      "payable": false,
      "stateMutability": "nonpayable",
      "type": "function"
    }
  ],
  "bytecode": "0x608060405234801561001057600080fd5b50610595806100206000396000f30060806040526004361061008d5763ffffffff7c0100000000000000000000000000000000000000000000000000000000600035041663095ea7b3811461009257806318160ddd146100ca57806323b872dd146100f1578063395093511461011b57806370a082311461013f578063a457c2d714610160578063a9059cbb14610184578063dd62ed3e146101a8575b600080fd5b34801561009e57600080fd5b506100b6600160a060020a03600435166024356101cf565b604080519115158252519081900360200190f35b3480156100d657600080fd5b506100df61024d565b60408051918252519081900360200190f35b3480156100fd57600080fd5b506100b6600160a060020a0360043581169060243516604435610253565b34801561012757600080fd5b506100b6600160a060020a03600435166024356102f0565b34801561014b57600080fd5b506100df600160a060020a03600435166103a0565b34801561016c57600080fd5b506100b6600160a060020a03600435166024356103bb565b34801561019057600080fd5b506100b6600160a060020a0360043516602435610406565b3480156101b457600080fd5b506100df600160a060020a036004358116906024351661041c565b6000600160a060020a03831615156101e657600080fd5b336000818152600160209081526040808320600160a060020a03881680855290835292819020869055805186815290519293927f8c5be1e5ebec7d5bd14f71427d1e84f3dd0314c0f7b2291e5b200ac8c7c3b925929181900390910190a350600192915050565b60025490565b600160a060020a038316600090815260016020908152604080832033845290915281205482111561028357600080fd5b600160a060020a03841660009081526001602090815260408083203384529091529020546102b7908363ffffffff61044716565b600160a060020a03851660009081526001602090815260408083203384529091529020556102e684848461045e565b5060019392505050565b6000600160a060020a038316151561030757600080fd5b336000908152600160209081526040808320600160a060020a038716845290915290205461033b908363ffffffff61055016565b336000818152600160209081526040808320600160a060020a0389168085529083529281902085905580519485525191937f8c5be1e5ebec7d5bd14f71427d1e84f3dd0314c0f7b2291e5b200ac8c7c3b925929081900390910190a350600192915050565b600160a060020a031660009081526020819052604090205490565b6000600160a060020a03831615156103d257600080fd5b336000908152600160209081526040808320600160a060020a038716845290915290205461033b908363ffffffff61044716565b600061041333848461045e565b50600192915050565b600160a060020a03918216600090815260016020908152604080832093909416825291909152205490565b6000808383111561045757600080fd5b5050900390565b600160a060020a03831660009081526020819052604090205481111561048357600080fd5b600160a060020a038216151561049857600080fd5b600160a060020a0383166000908152602081905260409020546104c1908263ffffffff61044716565b600160a060020a0380851660009081526020819052604080822093909355908416815220546104f6908263ffffffff61055016565b600160a060020a038084166000818152602081815260409182902094909455805185815290519193928716927fddf252ad1be2c89b69c2b068fc378daa952ba7f163c4a11628f55a4df523b3ef92918290030190a3505050565b60008282018381101561056257600080fd5b93925050505600a165627a7a7230582019525bfd108a00b2d9789e4c2e327d70d83a8d4eaffa3ffbf124a90fec7dd46b0029",
  "source": "pragma solidity ^0.4.24;\r\n\r\nimport \"./IERC20.sol\";\r\nimport \"../../math/SafeMath.sol\";\r\n\r\n/**\r\n * @title Standard ERC20 token\r\n *\r\n * @dev Implementation of the basic standard token.\r\n * https://github.com/ethereum/EIPs/blob/master/EIPS/eip-20.md\r\n * Originally based on code by FirstBlood: https://github.com/Firstbloodio/token/blob/master/smart_contract/FirstBloodToken.sol\r\n */\r\ncontract ERC20 is IERC20 {\r\n  using SafeMath for uint256;\r\n\r\n  mapping (address => uint256) private _balances;\r\n\r\n  mapping (address => mapping (address => uint256)) private _allowed;\r\n\r\n  uint256 private _totalSupply;\r\n\r\n  /**\r\n  * @dev Total number of tokens in existence\r\n  */\r\n  function totalSupply() public view returns (uint256) {\r\n    return _totalSupply;\r\n  }\r\n\r\n  /**\r\n  * @dev Gets the balance of the specified address.\r\n  * @param owner The address to query the balance of.\r\n  * @return An uint256 representing the amount owned by the passed address.\r\n  */\r\n  function balanceOf(address owner) public view returns (uint256) {\r\n    return _balances[owner];\r\n  }\r\n\r\n  /**\r\n   * @dev Function to check the amount of tokens that an owner allowed to a spender.\r\n   * @param owner address The address which owns the funds.\r\n   * @param spender address The address which will spend the funds.\r\n   * @return A uint256 specifying the amount of tokens still available for the spender.\r\n   */\r\n  function allowance(\r\n    address owner,\r\n    address spender\r\n   )\r\n    public\r\n    view\r\n    returns (uint256)\r\n  {\r\n    return _allowed[owner][spender];\r\n  }\r\n\r\n  /**\r\n  * @dev Transfer token for a specified address\r\n  * @param to The address to transfer to.\r\n  * @param value The amount to be transferred.\r\n  */\r\n  function transfer(address to, uint256 value) public returns (bool) {\r\n    _transfer(msg.sender, to, value);\r\n    return true;\r\n  }\r\n\r\n  /**\r\n   * @dev Approve the passed address to spend the specified amount of tokens on behalf of msg.sender.\r\n   * Beware that changing an allowance with this method brings the risk that someone may use both the old\r\n   * and the new allowance by unfortunate transaction ordering. One possible solution to mitigate this\r\n   * race condition is to first reduce the spender's allowance to 0 and set the desired value afterwards:\r\n   * https://github.com/ethereum/EIPs/issues/20#issuecomment-263524729\r\n   * @param spender The address which will spend the funds.\r\n   * @param value The amount of tokens to be spent.\r\n   */\r\n  function approve(address spender, uint256 value) public returns (bool) {\r\n    require(spender != address(0));\r\n\r\n    _allowed[msg.sender][spender] = value;\r\n    emit Approval(msg.sender, spender, value);\r\n    return true;\r\n  }\r\n\r\n  /**\r\n   * @dev Transfer tokens from one address to another\r\n   * @param from address The address which you want to send tokens from\r\n   * @param to address The address which you want to transfer to\r\n   * @param value uint256 the amount of tokens to be transferred\r\n   */\r\n  function transferFrom(\r\n    address from,\r\n    address to,\r\n    uint256 value\r\n  )\r\n    public\r\n    returns (bool)\r\n  {\r\n    require(value <= _allowed[from][msg.sender]);\r\n\r\n    _allowed[from][msg.sender] = _allowed[from][msg.sender].sub(value);\r\n    _transfer(from, to, value);\r\n    return true;\r\n  }\r\n\r\n  /**\r\n   * @dev Increase the amount of tokens that an owner allowed to a spender.\r\n   * approve should be called when allowed_[_spender] == 0. To increment\r\n   * allowed value is better to use this function to avoid 2 calls (and wait until\r\n   * the first transaction is mined)\r\n   * From MonolithDAO Token.sol\r\n   * @param spender The address which will spend the funds.\r\n   * @param addedValue The amount of tokens to increase the allowance by.\r\n   */\r\n  function increaseAllowance(\r\n    address spender,\r\n    uint256 addedValue\r\n  )\r\n    public\r\n    returns (bool)\r\n  {\r\n    require(spender != address(0));\r\n\r\n    _allowed[msg.sender][spender] = (\r\n      _allowed[msg.sender][spender].add(addedValue));\r\n    emit Approval(msg.sender, spender, _allowed[msg.sender][spender]);\r\n    return true;\r\n  }\r\n\r\n  /**\r\n   * @dev Decrease the amount of tokens that an owner allowed to a spender.\r\n   * approve should be called when allowed_[_spender] == 0. To decrement\r\n   * allowed value is better to use this function to avoid 2 calls (and wait until\r\n   * the first transaction is mined)\r\n   * From MonolithDAO Token.sol\r\n   * @param spender The address which will spend the funds.\r\n   * @param subtractedValue The amount of tokens to decrease the allowance by.\r\n   */\r\n  function decreaseAllowance(\r\n    address spender,\r\n    uint256 subtractedValue\r\n  )\r\n    public\r\n    returns (bool)\r\n  {\r\n    require(spender != address(0));\r\n\r\n    _allowed[msg.sender][spender] = (\r\n      _allowed[msg.sender][spender].sub(subtractedValue));\r\n    emit Approval(msg.sender, spender, _allowed[msg.sender][spender]);\r\n    return true;\r\n  }\r\n\r\n  /**\r\n  * @dev Transfer token for a specified addresses\r\n  * @param from The address to transfer from.\r\n  * @param to The address to transfer to.\r\n  * @param value The amount to be transferred.\r\n  */\r\n  function _transfer(address from, address to, uint256 value) internal {\r\n    require(value <= _balances[from]);\r\n    require(to != address(0));\r\n\r\n    _balances[from] = _balances[from].sub(value);\r\n    _balances[to] = _balances[to].add(value);\r\n    emit Transfer(from, to, value);\r\n  }\r\n\r\n  /**\r\n   * @dev Internal function that mints an amount of the token and assigns it to\r\n   * an account. This encapsulates the modification of balances such that the\r\n   * proper events are emitted.\r\n   * @param account The account that will receive the created tokens.\r\n   * @param value The amount that will be created.\r\n   */\r\n  function _mint(address account, uint256 value) internal {\r\n    require(account != 0);\r\n    _totalSupply = _totalSupply.add(value);\r\n    _balances[account] = _balances[account].add(value);\r\n    emit Transfer(address(0), account, value);\r\n  }\r\n\r\n  /**\r\n   * @dev Internal function that burns an amount of the token of a given\r\n   * account.\r\n   * @param account The account whose tokens will be burnt.\r\n   * @param value The amount that will be burnt.\r\n   */\r\n  function _burn(address account, uint256 value) internal {\r\n    require(account != 0);\r\n    require(value <= _balances[account]);\r\n\r\n    _totalSupply = _totalSupply.sub(value);\r\n    _balances[account] = _balances[account].sub(value);\r\n    emit Transfer(account, address(0), value);\r\n  }\r\n\r\n  /**\r\n   * @dev Internal function that burns an amount of the token of a given\r\n   * account, deducting from the sender's allowance for said account. Uses the\r\n   * internal burn function.\r\n   * @param account The account whose tokens will be burnt.\r\n   * @param value The amount that will be burnt.\r\n   */\r\n  function _burnFrom(address account, uint256 value) internal {\r\n    require(value <= _allowed[account][msg.sender]);\r\n\r\n    // Should https://github.com/OpenZeppelin/zeppelin-solidity/issues/707 be accepted,\r\n    // this function needs to emit an event with the updated approval.\r\n    _allowed[account][msg.sender] = _allowed[account][msg.sender].sub(\r\n      value);\r\n    _burn(account, value);\r\n  }\r\n}\r\n",
  "sourcePath": "C:\\Users\\Veronica Coutts\\Desktop\\Desktop\\Work\\LinumLabs\\proteav2\\contracts\\contracts\\openzeppelin-solidity\\token\\ERC20\\ERC20.sol",
  "compiler": {
    "name": "solc",
    "version": "0.4.24+commit.e67f0147.Emscripten.clang"
  },
  "schemaVersion": "2.0.1",
  "updatedAt": "2018-11-26T15:38:45.495Z"
}