{
  "contractName": "ERC20Mintable",
  "abi": [
    {
      "constant": false,
      "inputs": [
        {
          "name": "spender",
          "type": "address"
        },
        {
          "name": "value",
          "type": "uint256"
        }
      ],
      "name": "approve",
      "outputs": [
        {
          "name": "",
          "type": "bool"
        }
      ],
      "payable": false,
      "stateMutability": "nonpayable",
      "type": "function"
    },
    {
      "constant": true,
      "inputs": [],
      "name": "totalSupply",
      "outputs": [
        {
          "name": "",
          "type": "uint256"
        }
      ],
      "payable": false,
      "stateMutability": "view",
      "type": "function"
    },
    {
      "constant": false,
      "inputs": [
        {
          "name": "from",
          "type": "address"
        },
        {
          "name": "to",
          "type": "address"
        },
        {
          "name": "value",
          "type": "uint256"
        }
      ],
      "name": "transferFrom",
      "outputs": [
        {
          "name": "",
          "type": "bool"
        }
      ],
      "payable": false,
      "stateMutability": "nonpayable",
      "type": "function"
    },
    {
      "constant": false,
      "inputs": [
        {
          "name": "spender",
          "type": "address"
        },
        {
          "name": "addedValue",
          "type": "uint256"
        }
      ],
      "name": "increaseAllowance",
      "outputs": [
        {
          "name": "",
          "type": "bool"
        }
      ],
      "payable": false,
      "stateMutability": "nonpayable",
      "type": "function"
    },
    {
      "constant": true,
      "inputs": [
        {
          "name": "owner",
          "type": "address"
        }
      ],
      "name": "balanceOf",
      "outputs": [
        {
          "name": "",
          "type": "uint256"
        }
      ],
      "payable": false,
      "stateMutability": "view",
      "type": "function"
    },
    {
      "constant": false,
      "inputs": [
        {
          "name": "account",
          "type": "address"
        }
      ],
      "name": "addMinter",
      "outputs": [],
      "payable": false,
      "stateMutability": "nonpayable",
      "type": "function"
    },
    {
      "constant": false,
      "inputs": [],
      "name": "renounceMinter",
      "outputs": [],
      "payable": false,
      "stateMutability": "nonpayable",
      "type": "function"
    },
    {
      "constant": false,
      "inputs": [
        {
          "name": "spender",
          "type": "address"
        },
        {
          "name": "subtractedValue",
          "type": "uint256"
        }
      ],
      "name": "decreaseAllowance",
      "outputs": [
        {
          "name": "",
          "type": "bool"
        }
      ],
      "payable": false,
      "stateMutability": "nonpayable",
      "type": "function"
    },
    {
      "constant": false,
      "inputs": [
        {
          "name": "to",
          "type": "address"
        },
        {
          "name": "value",
          "type": "uint256"
        }
      ],
      "name": "transfer",
      "outputs": [
        {
          "name": "",
          "type": "bool"
        }
      ],
      "payable": false,
      "stateMutability": "nonpayable",
      "type": "function"
    },
    {
      "constant": true,
      "inputs": [
        {
          "name": "account",
          "type": "address"
        }
      ],
      "name": "isMinter",
      "outputs": [
        {
          "name": "",
          "type": "bool"
        }
      ],
      "payable": false,
      "stateMutability": "view",
      "type": "function"
    },
    {
      "constant": true,
      "inputs": [
        {
          "name": "owner",
          "type": "address"
        },
        {
          "name": "spender",
          "type": "address"
        }
      ],
      "name": "allowance",
      "outputs": [
        {
          "name": "",
          "type": "uint256"
        }
      ],
      "payable": false,
      "stateMutability": "view",
      "type": "function"
    },
    {
      "anonymous": false,
      "inputs": [
        {
          "indexed": true,
          "name": "account",
          "type": "address"
        }
      ],
      "name": "MinterAdded",
      "type": "event"
    },
    {
      "anonymous": false,
      "inputs": [
        {
          "indexed": true,
          "name": "account",
          "type": "address"
        }
      ],
      "name": "MinterRemoved",
      "type": "event"
    },
    {
      "anonymous": false,
      "inputs": [
        {
          "indexed": true,
          "name": "from",
          "type": "address"
        },
        {
          "indexed": true,
          "name": "to",
          "type": "address"
        },
        {
          "indexed": false,
          "name": "value",
          "type": "uint256"
        }
      ],
      "name": "Transfer",
      "type": "event"
    },
    {
      "anonymous": false,
      "inputs": [
        {
          "indexed": true,
          "name": "owner",
          "type": "address"
        },
        {
          "indexed": true,
          "name": "spender",
          "type": "address"
        },
        {
          "indexed": false,
          "name": "value",
          "type": "uint256"
        }
      ],
      "name": "Approval",
      "type": "event"
    },
    {
      "constant": false,
      "inputs": [
        {
          "name": "to",
          "type": "address"
        },
        {
          "name": "value",
          "type": "uint256"
        }
      ],
      "name": "mint",
      "outputs": [
        {
          "name": "",
          "type": "bool"
        }
      ],
      "payable": false,
      "stateMutability": "nonpayable",
      "type": "function"
    }
  ],
  "bytecode": "0x60806040526100163364010000000061001b810204565b6100f8565b6100336003826401000000006107e761006a82021704565b604051600160a060020a038216907f6ae172837ea30b801fbfcdd4108aa1d5bf8ff775444fd70256b44e6bf3dfc3f690600090a250565b600160a060020a038116151561007f57600080fd5b61009282826401000000006100c1810204565b1561009c57600080fd5b600160a060020a0316600090815260209190915260409020805460ff19166001179055565b6000600160a060020a03821615156100d857600080fd5b50600160a060020a03166000908152602091909152604090205460ff1690565b6108ad806101076000396000f3006080604052600436106100b95763ffffffff7c0100000000000000000000000000000000000000000000000000000000600035041663095ea7b381146100be57806318160ddd146100f657806323b872dd1461011d578063395093511461014757806340c10f191461016b57806370a082311461018f578063983b2d56146101b057806398650275146101d3578063a457c2d7146101e8578063a9059cbb1461020c578063aa271e1a14610230578063dd62ed3e14610251575b600080fd5b3480156100ca57600080fd5b506100e2600160a060020a0360043516602435610278565b604080519115158252519081900360200190f35b34801561010257600080fd5b5061010b6102f6565b60408051918252519081900360200190f35b34801561012957600080fd5b506100e2600160a060020a03600435811690602435166044356102fc565b34801561015357600080fd5b506100e2600160a060020a0360043516602435610399565b34801561017757600080fd5b506100e2600160a060020a0360043516602435610449565b34801561019b57600080fd5b5061010b600160a060020a0360043516610472565b3480156101bc57600080fd5b506101d1600160a060020a036004351661048d565b005b3480156101df57600080fd5b506101d16104ad565b3480156101f457600080fd5b506100e2600160a060020a03600435166024356104b8565b34801561021857600080fd5b506100e2600160a060020a0360043516602435610503565b34801561023c57600080fd5b506100e2600160a060020a0360043516610510565b34801561025d57600080fd5b5061010b600160a060020a0360043581169060243516610529565b6000600160a060020a038316151561028f57600080fd5b336000818152600160209081526040808320600160a060020a03881680855290835292819020869055805186815290519293927f8c5be1e5ebec7d5bd14f71427d1e84f3dd0314c0f7b2291e5b200ac8c7c3b925929181900390910190a350600192915050565b60025490565b600160a060020a038316600090815260016020908152604080832033845290915281205482111561032c57600080fd5b600160a060020a0384166000908152600160209081526040808320338452909152902054610360908363ffffffff61055416565b600160a060020a038516600090815260016020908152604080832033845290915290205561038f84848461056b565b5060019392505050565b6000600160a060020a03831615156103b057600080fd5b336000908152600160209081526040808320600160a060020a03871684529091529020546103e4908363ffffffff61065d16565b336000818152600160209081526040808320600160a060020a0389168085529083529281902085905580519485525191937f8c5be1e5ebec7d5bd14f71427d1e84f3dd0314c0f7b2291e5b200ac8c7c3b925929081900390910190a350600192915050565b600061045433610510565b151561045f57600080fd5b6104698383610676565b50600192915050565b600160a060020a031660009081526020819052604090205490565b61049633610510565b15156104a157600080fd5b6104aa81610720565b50565b6104b633610768565b565b6000600160a060020a03831615156104cf57600080fd5b336000908152600160209081526040808320600160a060020a03871684529091529020546103e4908363ffffffff61055416565b600061046933848461056b565b600061052360038363ffffffff6107b016565b92915050565b600160a060020a03918216600090815260016020908152604080832093909416825291909152205490565b6000808383111561056457600080fd5b5050900390565b600160a060020a03831660009081526020819052604090205481111561059057600080fd5b600160a060020a03821615156105a557600080fd5b600160a060020a0383166000908152602081905260409020546105ce908263ffffffff61055416565b600160a060020a038085166000908152602081905260408082209390935590841681522054610603908263ffffffff61065d16565b600160a060020a038084166000818152602081815260409182902094909455805185815290519193928716927fddf252ad1be2c89b69c2b068fc378daa952ba7f163c4a11628f55a4df523b3ef92918290030190a3505050565b60008282018381101561066f57600080fd5b9392505050565b600160a060020a038216151561068b57600080fd5b60025461069e908263ffffffff61065d16565b600255600160a060020a0382166000908152602081905260409020546106ca908263ffffffff61065d16565b600160a060020a0383166000818152602081815260408083209490945583518581529351929391927fddf252ad1be2c89b69c2b068fc378daa952ba7f163c4a11628f55a4df523b3ef9281900390910190a35050565b61073160038263ffffffff6107e716565b604051600160a060020a038216907f6ae172837ea30b801fbfcdd4108aa1d5bf8ff775444fd70256b44e6bf3dfc3f690600090a250565b61077960038263ffffffff61083516565b604051600160a060020a038216907fe94479a9f7e1952cc78f2d6baab678adc1b772d936c6583def489e524cb6669290600090a250565b6000600160a060020a03821615156107c757600080fd5b50600160a060020a03166000908152602091909152604090205460ff1690565b600160a060020a03811615156107fc57600080fd5b61080682826107b0565b1561081057600080fd5b600160a060020a0316600090815260209190915260409020805460ff19166001179055565b600160a060020a038116151561084a57600080fd5b61085482826107b0565b151561085f57600080fd5b600160a060020a0316600090815260209190915260409020805460ff191690555600a165627a7a72305820837e10729ab67c2ac3084304ad7c4def150fea629925b11f34a7cb972c3d2f6a0029",
  "source": "pragma solidity ^0.4.24;\r\n\r\nimport \"./ERC20.sol\";\r\nimport \"../../access/roles/MinterRole.sol\";\r\n\r\n/**\r\n * @title ERC20Mintable\r\n * @dev ERC20 minting logic\r\n */\r\ncontract ERC20Mintable is ERC20, MinterRole {\r\n  /**\r\n   * @dev Function to mint tokens\r\n   * @param to The address that will receive the minted tokens.\r\n   * @param value The amount of tokens to mint.\r\n   * @return A boolean that indicates if the operation was successful.\r\n   */\r\n  function mint(\r\n    address to,\r\n    uint256 value\r\n  )\r\n    public\r\n    onlyMinter\r\n    returns (bool)\r\n  {\r\n    _mint(to, value);\r\n    return true;\r\n  }\r\n}\r\n",
  "sourcePath": "C:\\Users\\Veronica Coutts\\Desktop\\Desktop\\Work\\LinumLabs\\proteav2\\contracts\\contracts\\openzeppelin-solidity\\token\\ERC20\\ERC20Mintable.sol",
  "compiler": {
    "name": "solc",
    "version": "0.4.24+commit.e67f0147.Emscripten.clang"
  },
  "schemaVersion": "2.0.1",
  "updatedAt": "2018-11-26T15:38:45.532Z"
}