{
  "contractName": "ERC721Full",
  "abi": [
    {
      "constant": true,
      "inputs": [
        {
          "name": "interfaceId",
          "type": "bytes4"
        }
      ],
      "name": "supportsInterface",
      "outputs": [
        {
          "name": "",
          "type": "bool"
        }
      ],
      "payable": false,
      "stateMutability": "view",
      "type": "function"
    },
    {
      "constant": true,
      "inputs": [],
      "name": "name",
      "outputs": [
        {
          "name": "",
          "type": "string"
        }
      ],
      "payable": false,
      "stateMutability": "view",
      "type": "function"
    },
    {
      "constant": true,
      "inputs": [
        {
          "name": "tokenId",
          "type": "uint256"
        }
      ],
      "name": "getApproved",
      "outputs": [
        {
          "name": "",
          "type": "address"
        }
      ],
      "payable": false,
      "stateMutability": "view",
      "type": "function"
    },
    {
      "constant": false,
      "inputs": [
        {
          "name": "to",
          "type": "address"
        },
        {
          "name": "tokenId",
          "type": "uint256"
        }
      ],
      "name": "approve",
      "outputs": [],
      "payable": false,
      "stateMutability": "nonpayable",
      "type": "function"
    },
    {
      "constant": true,
      "inputs": [],
      "name": "totalSupply",
      "outputs": [
        {
          "name": "",
          "type": "uint256"
        }
      ],
      "payable": false,
      "stateMutability": "view",
      "type": "function"
    },
    {
      "constant": false,
      "inputs": [
        {
          "name": "from",
          "type": "address"
        },
        {
          "name": "to",
          "type": "address"
        },
        {
          "name": "tokenId",
          "type": "uint256"
        }
      ],
      "name": "transferFrom",
      "outputs": [],
      "payable": false,
      "stateMutability": "nonpayable",
      "type": "function"
    },
    {
      "constant": true,
      "inputs": [
        {
          "name": "owner",
          "type": "address"
        },
        {
          "name": "index",
          "type": "uint256"
        }
      ],
      "name": "tokenOfOwnerByIndex",
      "outputs": [
        {
          "name": "",
          "type": "uint256"
        }
      ],
      "payable": false,
      "stateMutability": "view",
      "type": "function"
    },
    {
      "constant": false,
      "inputs": [
        {
          "name": "from",
          "type": "address"
        },
        {
          "name": "to",
          "type": "address"
        },
        {
          "name": "tokenId",
          "type": "uint256"
        }
      ],
      "name": "safeTransferFrom",
      "outputs": [],
      "payable": false,
      "stateMutability": "nonpayable",
      "type": "function"
    },
    {
      "constant": true,
      "inputs": [
        {
          "name": "index",
          "type": "uint256"
        }
      ],
      "name": "tokenByIndex",
      "outputs": [
        {
          "name": "",
          "type": "uint256"
        }
      ],
      "payable": false,
      "stateMutability": "view",
      "type": "function"
    },
    {
      "constant": true,
      "inputs": [
        {
          "name": "tokenId",
          "type": "uint256"
        }
      ],
      "name": "ownerOf",
      "outputs": [
        {
          "name": "",
          "type": "address"
        }
      ],
      "payable": false,
      "stateMutability": "view",
      "type": "function"
    },
    {
      "constant": true,
      "inputs": [
        {
          "name": "owner",
          "type": "address"
        }
      ],
      "name": "balanceOf",
      "outputs": [
        {
          "name": "",
          "type": "uint256"
        }
      ],
      "payable": false,
      "stateMutability": "view",
      "type": "function"
    },
    {
      "constant": true,
      "inputs": [],
      "name": "symbol",
      "outputs": [
        {
          "name": "",
          "type": "string"
        }
      ],
      "payable": false,
      "stateMutability": "view",
      "type": "function"
    },
    {
      "constant": false,
      "inputs": [
        {
          "name": "to",
          "type": "address"
        },
        {
          "name": "approved",
          "type": "bool"
        }
      ],
      "name": "setApprovalForAll",
      "outputs": [],
      "payable": false,
      "stateMutability": "nonpayable",
      "type": "function"
    },
    {
      "constant": false,
      "inputs": [
        {
          "name": "from",
          "type": "address"
        },
        {
          "name": "to",
          "type": "address"
        },
        {
          "name": "tokenId",
          "type": "uint256"
        },
        {
          "name": "_data",
          "type": "bytes"
        }
      ],
      "name": "safeTransferFrom",
      "outputs": [],
      "payable": false,
      "stateMutability": "nonpayable",
      "type": "function"
    },
    {
      "constant": true,
      "inputs": [
        {
          "name": "tokenId",
          "type": "uint256"
        }
      ],
      "name": "tokenURI",
      "outputs": [
        {
          "name": "",
          "type": "string"
        }
      ],
      "payable": false,
      "stateMutability": "view",
      "type": "function"
    },
    {
      "constant": true,
      "inputs": [
        {
          "name": "owner",
          "type": "address"
        },
        {
          "name": "operator",
          "type": "address"
        }
      ],
      "name": "isApprovedForAll",
      "outputs": [
        {
          "name": "",
          "type": "bool"
        }
      ],
      "payable": false,
      "stateMutability": "view",
      "type": "function"
    },
    {
      "inputs": [
        {
          "name": "name",
          "type": "string"
        },
        {
          "name": "symbol",
          "type": "string"
        }
      ],
      "payable": false,
      "stateMutability": "nonpayable",
      "type": "constructor"
    },
    {
      "anonymous": false,
      "inputs": [
        {
          "indexed": true,
          "name": "from",
          "type": "address"
        },
        {
          "indexed": true,
          "name": "to",
          "type": "address"
        },
        {
          "indexed": true,
          "name": "tokenId",
          "type": "uint256"
        }
      ],
      "name": "Transfer",
      "type": "event"
    },
    {
      "anonymous": false,
      "inputs": [
        {
          "indexed": true,
          "name": "owner",
          "type": "address"
        },
        {
          "indexed": true,
          "name": "approved",
          "type": "address"
        },
        {
          "indexed": true,
          "name": "tokenId",
          "type": "uint256"
        }
      ],
      "name": "Approval",
      "type": "event"
    },
    {
      "anonymous": false,
      "inputs": [
        {
          "indexed": true,
          "name": "owner",
          "type": "address"
        },
        {
          "indexed": true,
          "name": "operator",
          "type": "address"
        },
        {
          "indexed": false,
          "name": "approved",
          "type": "bool"
        }
      ],
      "name": "ApprovalForAll",
      "type": "event"
    }
  ],
  "bytecode": "0x60806040523480156200001157600080fd5b506040516200110c3803806200110c833981016040528051602082015190820191018181620000697f01ffc9a7000000000000000000000000000000000000000000000000000000006401000000006200013b810204565b6200009d7f80ac58cd000000000000000000000000000000000000000000000000000000006401000000006200013b810204565b620000d17f780e9d63000000000000000000000000000000000000000000000000000000006401000000006200013b810204565b8151620000e6906009906020850190620001a8565b508051620000fc90600a906020840190620001a8565b50620001317f5b5e139f000000000000000000000000000000000000000000000000000000006401000000006200013b810204565b505050506200024d565b7fffffffff0000000000000000000000000000000000000000000000000000000080821614156200016b57600080fd5b7fffffffff00000000000000000000000000000000000000000000000000000000166000908152602081905260409020805460ff19166001179055565b828054600181600116156101000203166002900490600052602060002090601f016020900481019282601f10620001eb57805160ff19168380011785556200021b565b828001600101855582156200021b579182015b828111156200021b578251825591602001919060010190620001fe565b50620002299291506200022d565b5090565b6200024a91905b8082111562000229576000815560010162000234565b90565b610eaf806200025d6000396000f3006080604052600436106100e55763ffffffff7c010000000000000000000000000000000000000000000000000000000060003504166301ffc9a781146100ea57806306fdde0314610135578063081812fc146101bf578063095ea7b3146101f357806318160ddd1461021957806323b872dd146102405780632f745c591461026a57806342842e0e1461028e5780634f6ccce7146102b85780636352211e146102d057806370a08231146102e857806395d89b4114610309578063a22cb4651461031e578063b88d4fde14610344578063c87b56dd146103b3578063e985e9c5146103cb575b600080fd5b3480156100f657600080fd5b506101217bffffffffffffffffffffffffffffffffffffffffffffffffffffffff19600435166103f2565b604080519115158252519081900360200190f35b34801561014157600080fd5b5061014a610426565b6040805160208082528351818301528351919283929083019185019080838360005b8381101561018457818101518382015260200161016c565b50505050905090810190601f1680156101b15780820380516001836020036101000a031916815260200191505b509250505060405180910390f35b3480156101cb57600080fd5b506101d76004356104bd565b60408051600160a060020a039092168252519081900360200190f35b3480156101ff57600080fd5b50610217600160a060020a03600435166024356104ef565b005b34801561022557600080fd5b5061022e6105a5565b60408051918252519081900360200190f35b34801561024c57600080fd5b50610217600160a060020a03600435811690602435166044356105ab565b34801561027657600080fd5b5061022e600160a060020a0360043516602435610639565b34801561029a57600080fd5b50610217600160a060020a0360043581169060243516604435610686565b3480156102c457600080fd5b5061022e6004356106a7565b3480156102dc57600080fd5b506101d76004356106dc565b3480156102f457600080fd5b5061022e600160a060020a0360043516610706565b34801561031557600080fd5b5061014a610739565b34801561032a57600080fd5b50610217600160a060020a0360043516602435151561079a565b34801561035057600080fd5b50604080516020601f60643560048181013592830184900484028501840190955281845261021794600160a060020a03813581169560248035909216956044359536956084940191819084018382808284375094975061081e9650505050505050565b3480156103bf57600080fd5b5061014a600435610846565b3480156103d757600080fd5b50610121600160a060020a03600435811690602435166108fb565b7bffffffffffffffffffffffffffffffffffffffffffffffffffffffff191660009081526020819052604090205460ff1690565b60098054604080516020601f60026000196101006001881615020190951694909404938401819004810282018101909252828152606093909290918301828280156104b25780601f10610487576101008083540402835291602001916104b2565b820191906000526020600020905b81548152906001019060200180831161049557829003601f168201915b505050505090505b90565b60006104c882610929565b15156104d357600080fd5b50600090815260026020526040902054600160a060020a031690565b60006104fa826106dc565b9050600160a060020a03838116908216141561051557600080fd5b33600160a060020a0382161480610531575061053181336108fb565b151561053c57600080fd5b600082815260026020526040808220805473ffffffffffffffffffffffffffffffffffffffff1916600160a060020a0387811691821790925591518593918516917f8c5be1e5ebec7d5bd14f71427d1e84f3dd0314c0f7b2291e5b200ac8c7c3b92591a4505050565b60075490565b6105b53382610946565b15156105c057600080fd5b600160a060020a03821615156105d557600080fd5b6105df83826109a5565b6105e98382610a16565b6105f38282610b1d565b8082600160a060020a031684600160a060020a03167fddf252ad1be2c89b69c2b068fc378daa952ba7f163c4a11628f55a4df523b3ef60405160405180910390a4505050565b600061064483610706565b821061064f57600080fd5b600160a060020a038316600090815260056020526040902080548390811061067357fe5b9060005260206000200154905092915050565b6106a2838383602060405190810160405280600081525061081e565b505050565b60006106b16105a5565b82106106bc57600080fd5b60078054839081106106ca57fe5b90600052602060002001549050919050565b600081815260016020526040812054600160a060020a031680151561070057600080fd5b92915050565b6000600160a060020a038216151561071d57600080fd5b50600160a060020a031660009081526003602052604090205490565b600a8054604080516020601f60026000196101006001881615020190951694909404938401819004810282018101909252828152606093909290918301828280156104b25780601f10610487576101008083540402835291602001916104b2565b600160a060020a0382163314156107b057600080fd5b336000818152600460209081526040808320600160a060020a03871680855290835292819020805460ff1916861515908117909155815190815290519293927f17307eab39ab6107e8899845ad3d59bd9653f200f220920489ca2b5937696c31929181900390910190a35050565b6108298484846105ab565b61083584848484610b66565b151561084057600080fd5b50505050565b606061085182610929565b151561085c57600080fd5b6000828152600b602090815260409182902080548351601f6002600019610100600186161502019093169290920491820184900484028101840190945280845290918301828280156108ef5780601f106108c4576101008083540402835291602001916108ef565b820191906000526020600020905b8154815290600101906020018083116108d257829003601f168201915b50505050509050919050565b600160a060020a03918216600090815260046020908152604080832093909416825291909152205460ff1690565b600090815260016020526040902054600160a060020a0316151590565b600080610952836106dc565b905080600160a060020a031684600160a060020a0316148061098d575083600160a060020a0316610982846104bd565b600160a060020a0316145b8061099d575061099d81856108fb565b949350505050565b81600160a060020a03166109b8826106dc565b600160a060020a0316146109cb57600080fd5b600081815260026020526040902054600160a060020a031615610a12576000818152600260205260409020805473ffffffffffffffffffffffffffffffffffffffff191690555b5050565b6000806000610a258585610ce8565b600084815260066020908152604080832054600160a060020a0389168452600590925290912054909350610a6090600163ffffffff610d7e16565b600160a060020a038616600090815260056020526040902080549193509083908110610a8857fe5b90600052602060002001549050806005600087600160a060020a0316600160a060020a0316815260200190815260200160002084815481101515610ac857fe5b6000918252602080832090910192909255600160a060020a0387168152600590915260409020805490610aff906000198301610e46565b50600093845260066020526040808520859055908452909220555050565b6000610b298383610d95565b50600160a060020a039091166000908152600560209081526040808320805460018101825590845282842081018590559383526006909152902055565b600080610b7b85600160a060020a0316610e25565b1515610b8a5760019150610cdf565b6040517f150b7a020000000000000000000000000000000000000000000000000000000081523360048201818152600160a060020a03898116602485015260448401889052608060648501908152875160848601528751918a169463150b7a0294938c938b938b93909160a490910190602085019080838360005b83811015610c1d578181015183820152602001610c05565b50505050905090810190601f168015610c4a5780820380516001836020036101000a031916815260200191505b5095505050505050602060405180830381600087803b158015610c6c57600080fd5b505af1158015610c80573d6000803e3d6000fd5b505050506040513d6020811015610c9657600080fd5b50517bffffffffffffffffffffffffffffffffffffffffffffffffffffffff1981167f150b7a020000000000000000000000000000000000000000000000000000000014925090505b50949350505050565b81600160a060020a0316610cfb826106dc565b600160a060020a031614610d0e57600080fd5b600160a060020a038216600090815260036020526040902054610d3890600163ffffffff610d7e16565b600160a060020a03909216600090815260036020908152604080832094909455918152600190915220805473ffffffffffffffffffffffffffffffffffffffff19169055565b60008083831115610d8e57600080fd5b5050900390565b600081815260016020526040902054600160a060020a031615610db757600080fd5b6000818152600160208181526040808420805473ffffffffffffffffffffffffffffffffffffffff1916600160a060020a0388169081179091558452600390915290912054610e0591610e2d565b600160a060020a0390921660009081526003602052604090209190915550565b6000903b1190565b600082820183811015610e3f57600080fd5b9392505050565b8154818355818111156106a2576000838152602090206106a29181019083016104ba91905b80821115610e7f5760008155600101610e6b565b50905600a165627a7a723058203bc99c1223ce28b429c723d36a7659d701030863d66b12efad9ed12fb9de11e00029",
  "source": "pragma solidity ^0.4.24;\r\n\r\nimport \"./ERC721.sol\";\r\nimport \"./ERC721Enumerable.sol\";\r\nimport \"./ERC721Metadata.sol\";\r\n\r\n/**\r\n * @title Full ERC721 Token\r\n * This implementation includes all the required and some optional functionality of the ERC721 standard\r\n * Moreover, it includes approve all functionality using operator terminology\r\n * @dev see https://github.com/ethereum/EIPs/blob/master/EIPS/eip-721.md\r\n */\r\ncontract ERC721Full is ERC721, ERC721Enumerable, ERC721Metadata {\r\n  constructor(string name, string symbol) ERC721Metadata(name, symbol)\r\n    public\r\n  {\r\n  }\r\n}\r\n",
  "sourcePath": "C:\\Users\\Veronica Coutts\\Desktop\\Desktop\\Work\\LinumLabs\\proteav2\\contracts\\contracts\\openzeppelin-solidity\\token\\ERC721\\ERC721Full.sol",
  "compiler": {
    "name": "solc",
    "version": "0.4.24+commit.e67f0147.Emscripten.clang"
  },
  "schemaVersion": "2.0.1",
  "updatedAt": "2018-11-26T15:38:45.545Z"
}