{
  "contractName": "ERC721",
  "abi": [
    {
      "constant": true,
      "inputs": [
        {
          "name": "interfaceId",
          "type": "bytes4"
        }
      ],
      "name": "supportsInterface",
      "outputs": [
        {
          "name": "",
          "type": "bool"
        }
      ],
      "payable": false,
      "stateMutability": "view",
      "type": "function"
    },
    {
      "inputs": [],
      "payable": false,
      "stateMutability": "nonpayable",
      "type": "constructor"
    },
    {
      "anonymous": false,
      "inputs": [
        {
          "indexed": true,
          "name": "from",
          "type": "address"
        },
        {
          "indexed": true,
          "name": "to",
          "type": "address"
        },
        {
          "indexed": true,
          "name": "tokenId",
          "type": "uint256"
        }
      ],
      "name": "Transfer",
      "type": "event"
    },
    {
      "anonymous": false,
      "inputs": [
        {
          "indexed": true,
          "name": "owner",
          "type": "address"
        },
        {
          "indexed": true,
          "name": "approved",
          "type": "address"
        },
        {
          "indexed": true,
          "name": "tokenId",
          "type": "uint256"
        }
      ],
      "name": "Approval",
      "type": "event"
    },
    {
      "anonymous": false,
      "inputs": [
        {
          "indexed": true,
          "name": "owner",
          "type": "address"
        },
        {
          "indexed": true,
          "name": "operator",
          "type": "address"
        },
        {
          "indexed": false,
          "name": "approved",
          "type": "bool"
        }
      ],
      "name": "ApprovalForAll",
      "type": "event"
    },
    {
      "constant": true,
      "inputs": [
        {
          "name": "owner",
          "type": "address"
        }
      ],
      "name": "balanceOf",
      "outputs": [
        {
          "name": "",
          "type": "uint256"
        }
      ],
      "payable": false,
      "stateMutability": "view",
      "type": "function"
    },
    {
      "constant": true,
      "inputs": [
        {
          "name": "tokenId",
          "type": "uint256"
        }
      ],
      "name": "ownerOf",
      "outputs": [
        {
          "name": "",
          "type": "address"
        }
      ],
      "payable": false,
      "stateMutability": "view",
      "type": "function"
    },
    {
      "constant": false,
      "inputs": [
        {
          "name": "to",
          "type": "address"
        },
        {
          "name": "tokenId",
          "type": "uint256"
        }
      ],
      "name": "approve",
      "outputs": [],
      "payable": false,
      "stateMutability": "nonpayable",
      "type": "function"
    },
    {
      "constant": true,
      "inputs": [
        {
          "name": "tokenId",
          "type": "uint256"
        }
      ],
      "name": "getApproved",
      "outputs": [
        {
          "name": "",
          "type": "address"
        }
      ],
      "payable": false,
      "stateMutability": "view",
      "type": "function"
    },
    {
      "constant": false,
      "inputs": [
        {
          "name": "to",
          "type": "address"
        },
        {
          "name": "approved",
          "type": "bool"
        }
      ],
      "name": "setApprovalForAll",
      "outputs": [],
      "payable": false,
      "stateMutability": "nonpayable",
      "type": "function"
    },
    {
      "constant": true,
      "inputs": [
        {
          "name": "owner",
          "type": "address"
        },
        {
          "name": "operator",
          "type": "address"
        }
      ],
      "name": "isApprovedForAll",
      "outputs": [
        {
          "name": "",
          "type": "bool"
        }
      ],
      "payable": false,
      "stateMutability": "view",
      "type": "function"
    },
    {
      "constant": false,
      "inputs": [
        {
          "name": "from",
          "type": "address"
        },
        {
          "name": "to",
          "type": "address"
        },
        {
          "name": "tokenId",
          "type": "uint256"
        }
      ],
      "name": "transferFrom",
      "outputs": [],
      "payable": false,
      "stateMutability": "nonpayable",
      "type": "function"
    },
    {
      "constant": false,
      "inputs": [
        {
          "name": "from",
          "type": "address"
        },
        {
          "name": "to",
          "type": "address"
        },
        {
          "name": "tokenId",
          "type": "uint256"
        }
      ],
      "name": "safeTransferFrom",
      "outputs": [],
      "payable": false,
      "stateMutability": "nonpayable",
      "type": "function"
    },
    {
      "constant": false,
      "inputs": [
        {
          "name": "from",
          "type": "address"
        },
        {
          "name": "to",
          "type": "address"
        },
        {
          "name": "tokenId",
          "type": "uint256"
        },
        {
          "name": "_data",
          "type": "bytes"
        }
      ],
      "name": "safeTransferFrom",
      "outputs": [],
      "payable": false,
      "stateMutability": "nonpayable",
      "type": "function"
    }
  ],
  "bytecode": "0x608060405234801561001057600080fd5b506100437f01ffc9a70000000000000000000000000000000000000000000000000000000064010000000061007a810204565b6100757f80ac58cd0000000000000000000000000000000000000000000000000000000064010000000061007a810204565b6100e6565b7fffffffff0000000000000000000000000000000000000000000000000000000080821614156100a957600080fd5b7fffffffff00000000000000000000000000000000000000000000000000000000166000908152602081905260409020805460ff19166001179055565b6109a3806100f56000396000f3006080604052600436106100a35763ffffffff7c010000000000000000000000000000000000000000000000000000000060003504166301ffc9a781146100a8578063081812fc146100f3578063095ea7b31461012757806323b872dd1461014d57806342842e0e146101775780636352211e146101a157806370a08231146101b9578063a22cb465146101ec578063b88d4fde14610212578063e985e9c514610281575b600080fd5b3480156100b457600080fd5b506100df7bffffffffffffffffffffffffffffffffffffffffffffffffffffffff19600435166102a8565b604080519115158252519081900360200190f35b3480156100ff57600080fd5b5061010b6004356102dc565b60408051600160a060020a039092168252519081900360200190f35b34801561013357600080fd5b5061014b600160a060020a036004351660243561030e565b005b34801561015957600080fd5b5061014b600160a060020a03600435811690602435166044356103c4565b34801561018357600080fd5b5061014b600160a060020a0360043581169060243516604435610452565b3480156101ad57600080fd5b5061010b600435610473565b3480156101c557600080fd5b506101da600160a060020a036004351661049d565b60408051918252519081900360200190f35b3480156101f857600080fd5b5061014b600160a060020a036004351660243515156104d0565b34801561021e57600080fd5b50604080516020601f60643560048181013592830184900484028501840190955281845261014b94600160a060020a0381358116956024803590921695604435953695608494019181908401838280828437509497506105549650505050505050565b34801561028d57600080fd5b506100df600160a060020a036004358116906024351661057c565b7bffffffffffffffffffffffffffffffffffffffffffffffffffffffff191660009081526020819052604090205460ff1690565b60006102e7826105aa565b15156102f257600080fd5b50600090815260026020526040902054600160a060020a031690565b600061031982610473565b9050600160a060020a03838116908216141561033457600080fd5b33600160a060020a03821614806103505750610350813361057c565b151561035b57600080fd5b600082815260026020526040808220805473ffffffffffffffffffffffffffffffffffffffff1916600160a060020a0387811691821790925591518593918516917f8c5be1e5ebec7d5bd14f71427d1e84f3dd0314c0f7b2291e5b200ac8c7c3b92591a4505050565b6103ce33826105c7565b15156103d957600080fd5b600160a060020a03821615156103ee57600080fd5b6103f88382610626565b6104028382610697565b61040c828261072d565b8082600160a060020a031684600160a060020a03167fddf252ad1be2c89b69c2b068fc378daa952ba7f163c4a11628f55a4df523b3ef60405160405180910390a4505050565b61046e8383836020604051908101604052806000815250610554565b505050565b600081815260016020526040812054600160a060020a031680151561049757600080fd5b92915050565b6000600160a060020a03821615156104b457600080fd5b50600160a060020a031660009081526003602052604090205490565b600160a060020a0382163314156104e657600080fd5b336000818152600460209081526040808320600160a060020a03871680855290835292819020805460ff1916861515908117909155815190815290519293927f17307eab39ab6107e8899845ad3d59bd9653f200f220920489ca2b5937696c31929181900390910190a35050565b61055f8484846103c4565b61056b848484846107bd565b151561057657600080fd5b50505050565b600160a060020a03918216600090815260046020908152604080832093909416825291909152205460ff1690565b600090815260016020526040902054600160a060020a0316151590565b6000806105d383610473565b905080600160a060020a031684600160a060020a0316148061060e575083600160a060020a0316610603846102dc565b600160a060020a0316145b8061061e575061061e818561057c565b949350505050565b81600160a060020a031661063982610473565b600160a060020a03161461064c57600080fd5b600081815260026020526040902054600160a060020a031615610693576000818152600260205260409020805473ffffffffffffffffffffffffffffffffffffffff191690555b5050565b81600160a060020a03166106aa82610473565b600160a060020a0316146106bd57600080fd5b600160a060020a0382166000908152600360205260409020546106e790600163ffffffff61093f16565b600160a060020a03909216600090815260036020908152604080832094909455918152600190915220805473ffffffffffffffffffffffffffffffffffffffff19169055565b600081815260016020526040902054600160a060020a03161561074f57600080fd5b6000818152600160208181526040808420805473ffffffffffffffffffffffffffffffffffffffff1916600160a060020a038816908117909155845260039091529091205461079d91610956565b600160a060020a0390921660009081526003602052604090209190915550565b6000806107d285600160a060020a031661096f565b15156107e15760019150610936565b6040517f150b7a020000000000000000000000000000000000000000000000000000000081523360048201818152600160a060020a03898116602485015260448401889052608060648501908152875160848601528751918a169463150b7a0294938c938b938b93909160a490910190602085019080838360005b8381101561087457818101518382015260200161085c565b50505050905090810190601f1680156108a15780820380516001836020036101000a031916815260200191505b5095505050505050602060405180830381600087803b1580156108c357600080fd5b505af11580156108d7573d6000803e3d6000fd5b505050506040513d60208110156108ed57600080fd5b50517bffffffffffffffffffffffffffffffffffffffffffffffffffffffff1981167f150b7a020000000000000000000000000000000000000000000000000000000014925090505b50949350505050565b6000808383111561094f57600080fd5b5050900390565b60008282018381101561096857600080fd5b9392505050565b6000903b11905600a165627a7a7230582019c06d4babdab6cccb04834c1279f7f1085d3c280759e4e8172a903d7d521a030029",
  "source": "pragma solidity ^0.4.24;\r\n\r\nimport \"./IERC721.sol\";\r\nimport \"./IERC721Receiver.sol\";\r\nimport \"../../math/SafeMath.sol\";\r\nimport \"../../utils/Address.sol\";\r\nimport \"../../introspection/ERC165.sol\";\r\n\r\n/**\r\n * @title ERC721 Non-Fungible Token Standard basic implementation\r\n * @dev see https://github.com/ethereum/EIPs/blob/master/EIPS/eip-721.md\r\n */\r\ncontract ERC721 is ERC165, IERC721 {\r\n\r\n  using SafeMath for uint256;\r\n  using Address for address;\r\n\r\n  // Equals to `bytes4(keccak256(\"onERC721Received(address,address,uint256,bytes)\"))`\r\n  // which can be also obtained as `IERC721Receiver(0).onERC721Received.selector`\r\n  bytes4 private constant _ERC721_RECEIVED = 0x150b7a02;\r\n\r\n  // Mapping from token ID to owner\r\n  mapping (uint256 => address) private _tokenOwner;\r\n\r\n  // Mapping from token ID to approved address\r\n  mapping (uint256 => address) private _tokenApprovals;\r\n\r\n  // Mapping from owner to number of owned token\r\n  mapping (address => uint256) private _ownedTokensCount;\r\n\r\n  // Mapping from owner to operator approvals\r\n  mapping (address => mapping (address => bool)) private _operatorApprovals;\r\n\r\n  bytes4 private constant _InterfaceId_ERC721 = 0x80ac58cd;\r\n  /*\r\n   * 0x80ac58cd ===\r\n   *   bytes4(keccak256('balanceOf(address)')) ^\r\n   *   bytes4(keccak256('ownerOf(uint256)')) ^\r\n   *   bytes4(keccak256('approve(address,uint256)')) ^\r\n   *   bytes4(keccak256('getApproved(uint256)')) ^\r\n   *   bytes4(keccak256('setApprovalForAll(address,bool)')) ^\r\n   *   bytes4(keccak256('isApprovedForAll(address,address)')) ^\r\n   *   bytes4(keccak256('transferFrom(address,address,uint256)')) ^\r\n   *   bytes4(keccak256('safeTransferFrom(address,address,uint256)')) ^\r\n   *   bytes4(keccak256('safeTransferFrom(address,address,uint256,bytes)'))\r\n   */\r\n\r\n  constructor()\r\n    public\r\n  {\r\n    // register the supported interfaces to conform to ERC721 via ERC165\r\n    _registerInterface(_InterfaceId_ERC721);\r\n  }\r\n\r\n  /**\r\n   * @dev Gets the balance of the specified address\r\n   * @param owner address to query the balance of\r\n   * @return uint256 representing the amount owned by the passed address\r\n   */\r\n  function balanceOf(address owner) public view returns (uint256) {\r\n    require(owner != address(0));\r\n    return _ownedTokensCount[owner];\r\n  }\r\n\r\n  /**\r\n   * @dev Gets the owner of the specified token ID\r\n   * @param tokenId uint256 ID of the token to query the owner of\r\n   * @return owner address currently marked as the owner of the given token ID\r\n   */\r\n  function ownerOf(uint256 tokenId) public view returns (address) {\r\n    address owner = _tokenOwner[tokenId];\r\n    require(owner != address(0));\r\n    return owner;\r\n  }\r\n\r\n  /**\r\n   * @dev Approves another address to transfer the given token ID\r\n   * The zero address indicates there is no approved address.\r\n   * There can only be one approved address per token at a given time.\r\n   * Can only be called by the token owner or an approved operator.\r\n   * @param to address to be approved for the given token ID\r\n   * @param tokenId uint256 ID of the token to be approved\r\n   */\r\n  function approve(address to, uint256 tokenId) public {\r\n    address owner = ownerOf(tokenId);\r\n    require(to != owner);\r\n    require(msg.sender == owner || isApprovedForAll(owner, msg.sender));\r\n\r\n    _tokenApprovals[tokenId] = to;\r\n    emit Approval(owner, to, tokenId);\r\n  }\r\n\r\n  /**\r\n   * @dev Gets the approved address for a token ID, or zero if no address set\r\n   * Reverts if the token ID does not exist.\r\n   * @param tokenId uint256 ID of the token to query the approval of\r\n   * @return address currently approved for the given token ID\r\n   */\r\n  function getApproved(uint256 tokenId) public view returns (address) {\r\n    require(_exists(tokenId));\r\n    return _tokenApprovals[tokenId];\r\n  }\r\n\r\n  /**\r\n   * @dev Sets or unsets the approval of a given operator\r\n   * An operator is allowed to transfer all tokens of the sender on their behalf\r\n   * @param to operator address to set the approval\r\n   * @param approved representing the status of the approval to be set\r\n   */\r\n  function setApprovalForAll(address to, bool approved) public {\r\n    require(to != msg.sender);\r\n    _operatorApprovals[msg.sender][to] = approved;\r\n    emit ApprovalForAll(msg.sender, to, approved);\r\n  }\r\n\r\n  /**\r\n   * @dev Tells whether an operator is approved by a given owner\r\n   * @param owner owner address which you want to query the approval of\r\n   * @param operator operator address which you want to query the approval of\r\n   * @return bool whether the given operator is approved by the given owner\r\n   */\r\n  function isApprovedForAll(\r\n    address owner,\r\n    address operator\r\n  )\r\n    public\r\n    view\r\n    returns (bool)\r\n  {\r\n    return _operatorApprovals[owner][operator];\r\n  }\r\n\r\n  /**\r\n   * @dev Transfers the ownership of a given token ID to another address\r\n   * Usage of this method is discouraged, use `safeTransferFrom` whenever possible\r\n   * Requires the msg sender to be the owner, approved, or operator\r\n   * @param from current owner of the token\r\n   * @param to address to receive the ownership of the given token ID\r\n   * @param tokenId uint256 ID of the token to be transferred\r\n  */\r\n  function transferFrom(\r\n    address from,\r\n    address to,\r\n    uint256 tokenId\r\n  )\r\n    public\r\n  {\r\n    require(_isApprovedOrOwner(msg.sender, tokenId));\r\n    require(to != address(0));\r\n\r\n    _clearApproval(from, tokenId);\r\n    _removeTokenFrom(from, tokenId);\r\n    _addTokenTo(to, tokenId);\r\n\r\n    emit Transfer(from, to, tokenId);\r\n  }\r\n\r\n  /**\r\n   * @dev Safely transfers the ownership of a given token ID to another address\r\n   * If the target address is a contract, it must implement `onERC721Received`,\r\n   * which is called upon a safe transfer, and return the magic value\r\n   * `bytes4(keccak256(\"onERC721Received(address,address,uint256,bytes)\"))`; otherwise,\r\n   * the transfer is reverted.\r\n   *\r\n   * Requires the msg sender to be the owner, approved, or operator\r\n   * @param from current owner of the token\r\n   * @param to address to receive the ownership of the given token ID\r\n   * @param tokenId uint256 ID of the token to be transferred\r\n  */\r\n  function safeTransferFrom(\r\n    address from,\r\n    address to,\r\n    uint256 tokenId\r\n  )\r\n    public\r\n  {\r\n    // solium-disable-next-line arg-overflow\r\n    safeTransferFrom(from, to, tokenId, \"\");\r\n  }\r\n\r\n  /**\r\n   * @dev Safely transfers the ownership of a given token ID to another address\r\n   * If the target address is a contract, it must implement `onERC721Received`,\r\n   * which is called upon a safe transfer, and return the magic value\r\n   * `bytes4(keccak256(\"onERC721Received(address,address,uint256,bytes)\"))`; otherwise,\r\n   * the transfer is reverted.\r\n   * Requires the msg sender to be the owner, approved, or operator\r\n   * @param from current owner of the token\r\n   * @param to address to receive the ownership of the given token ID\r\n   * @param tokenId uint256 ID of the token to be transferred\r\n   * @param _data bytes data to send along with a safe transfer check\r\n   */\r\n  function safeTransferFrom(\r\n    address from,\r\n    address to,\r\n    uint256 tokenId,\r\n    bytes _data\r\n  )\r\n    public\r\n  {\r\n    transferFrom(from, to, tokenId);\r\n    // solium-disable-next-line arg-overflow\r\n    require(_checkOnERC721Received(from, to, tokenId, _data));\r\n  }\r\n\r\n  /**\r\n   * @dev Returns whether the specified token exists\r\n   * @param tokenId uint256 ID of the token to query the existence of\r\n   * @return whether the token exists\r\n   */\r\n  function _exists(uint256 tokenId) internal view returns (bool) {\r\n    address owner = _tokenOwner[tokenId];\r\n    return owner != address(0);\r\n  }\r\n\r\n  /**\r\n   * @dev Returns whether the given spender can transfer a given token ID\r\n   * @param spender address of the spender to query\r\n   * @param tokenId uint256 ID of the token to be transferred\r\n   * @return bool whether the msg.sender is approved for the given token ID,\r\n   *  is an operator of the owner, or is the owner of the token\r\n   */\r\n  function _isApprovedOrOwner(\r\n    address spender,\r\n    uint256 tokenId\r\n  )\r\n    internal\r\n    view\r\n    returns (bool)\r\n  {\r\n    address owner = ownerOf(tokenId);\r\n    // Disable solium check because of\r\n    // https://github.com/duaraghav8/Solium/issues/175\r\n    // solium-disable-next-line operator-whitespace\r\n    return (\r\n      spender == owner ||\r\n      getApproved(tokenId) == spender ||\r\n      isApprovedForAll(owner, spender)\r\n    );\r\n  }\r\n\r\n  /**\r\n   * @dev Internal function to mint a new token\r\n   * Reverts if the given token ID already exists\r\n   * @param to The address that will own the minted token\r\n   * @param tokenId uint256 ID of the token to be minted by the msg.sender\r\n   */\r\n  function _mint(address to, uint256 tokenId) internal {\r\n    require(to != address(0));\r\n    _addTokenTo(to, tokenId);\r\n    emit Transfer(address(0), to, tokenId);\r\n  }\r\n\r\n  /**\r\n   * @dev Internal function to burn a specific token\r\n   * Reverts if the token does not exist\r\n   * @param tokenId uint256 ID of the token being burned by the msg.sender\r\n   */\r\n  function _burn(address owner, uint256 tokenId) internal {\r\n    _clearApproval(owner, tokenId);\r\n    _removeTokenFrom(owner, tokenId);\r\n    emit Transfer(owner, address(0), tokenId);\r\n  }\r\n\r\n  /**\r\n   * @dev Internal function to add a token ID to the list of a given address\r\n   * Note that this function is left internal to make ERC721Enumerable possible, but is not\r\n   * intended to be called by custom derived contracts: in particular, it emits no Transfer event.\r\n   * @param to address representing the new owner of the given token ID\r\n   * @param tokenId uint256 ID of the token to be added to the tokens list of the given address\r\n   */\r\n  function _addTokenTo(address to, uint256 tokenId) internal {\r\n    require(_tokenOwner[tokenId] == address(0));\r\n    _tokenOwner[tokenId] = to;\r\n    _ownedTokensCount[to] = _ownedTokensCount[to].add(1);\r\n  }\r\n\r\n  /**\r\n   * @dev Internal function to remove a token ID from the list of a given address\r\n   * Note that this function is left internal to make ERC721Enumerable possible, but is not\r\n   * intended to be called by custom derived contracts: in particular, it emits no Transfer event,\r\n   * and doesn't clear approvals.\r\n   * @param from address representing the previous owner of the given token ID\r\n   * @param tokenId uint256 ID of the token to be removed from the tokens list of the given address\r\n   */\r\n  function _removeTokenFrom(address from, uint256 tokenId) internal {\r\n    require(ownerOf(tokenId) == from);\r\n    _ownedTokensCount[from] = _ownedTokensCount[from].sub(1);\r\n    _tokenOwner[tokenId] = address(0);\r\n  }\r\n\r\n  /**\r\n   * @dev Internal function to invoke `onERC721Received` on a target address\r\n   * The call is not executed if the target address is not a contract\r\n   * @param from address representing the previous owner of the given token ID\r\n   * @param to target address that will receive the tokens\r\n   * @param tokenId uint256 ID of the token to be transferred\r\n   * @param _data bytes optional data to send along with the call\r\n   * @return whether the call correctly returned the expected magic value\r\n   */\r\n  function _checkOnERC721Received(\r\n    address from,\r\n    address to,\r\n    uint256 tokenId,\r\n    bytes _data\r\n  )\r\n    internal\r\n    returns (bool)\r\n  {\r\n    if (!to.isContract()) {\r\n      return true;\r\n    }\r\n    bytes4 retval = IERC721Receiver(to).onERC721Received(\r\n      msg.sender, from, tokenId, _data);\r\n    return (retval == _ERC721_RECEIVED);\r\n  }\r\n\r\n  /**\r\n   * @dev Private function to clear current approval of a given token ID\r\n   * Reverts if the given address is not indeed the owner of the token\r\n   * @param owner owner of the token\r\n   * @param tokenId uint256 ID of the token to be transferred\r\n   */\r\n  function _clearApproval(address owner, uint256 tokenId) private {\r\n    require(ownerOf(tokenId) == owner);\r\n    if (_tokenApprovals[tokenId] != address(0)) {\r\n      _tokenApprovals[tokenId] = address(0);\r\n    }\r\n  }\r\n}\r\n",
  "sourcePath": "C:\\Users\\Veronica Coutts\\Desktop\\Desktop\\Work\\LinumLabs\\proteav2\\contracts\\contracts\\openzeppelin-solidity\\token\\ERC721\\ERC721.sol",
  "compiler": {
    "name": "solc",
    "version": "0.4.24+commit.e67f0147.Emscripten.clang"
  },
  "schemaVersion": "2.0.1",
  "updatedAt": "2018-11-26T15:38:45.536Z"
}