{
  "contractName": "EventManager",
  "abi": [
    {
      "constant": true,
      "inputs": [],
      "name": "maxAttendanceBonus",
      "outputs": [
        {
          "name": "",
          "type": "uint256"
        }
      ],
      "payable": false,
      "stateMutability": "view",
      "type": "function"
    },
    {
      "constant": true,
      "inputs": [
        {
          "name": "",
          "type": "uint256"
        }
      ],
      "name": "events",
      "outputs": [
        {
          "name": "name",
          "type": "string"
        },
        {
          "name": "requiredStake",
          "type": "uint256"
        },
        {
          "name": "maxAttendees",
          "type": "uint24"
        },
        {
          "name": "currentAttendees",
          "type": "uint24"
        },
        {
          "name": "attended",
          "type": "uint24"
        },
        {
          "name": "organiser",
          "type": "address"
        },
        {
          "name": "totalStaked",
          "type": "uint256"
        },
        {
          "name": "state",
          "type": "uint24"
        },
        {
          "name": "payout",
          "type": "uint256"
        },
        {
          "name": "participantLimit",
          "type": "uint256"
        }
      ],
      "payable": false,
      "stateMutability": "view",
      "type": "function"
    },
    {
      "constant": true,
      "inputs": [],
      "name": "rewardManager",
      "outputs": [
        {
          "name": "",
          "type": "address"
        }
      ],
      "payable": false,
      "stateMutability": "view",
      "type": "function"
    },
    {
      "constant": true,
      "inputs": [],
      "name": "creationCost",
      "outputs": [
        {
          "name": "",
          "type": "uint256"
        }
      ],
      "payable": false,
      "stateMutability": "view",
      "type": "function"
    },
    {
      "constant": true,
      "inputs": [],
      "name": "tokenManager",
      "outputs": [
        {
          "name": "",
          "type": "address"
        }
      ],
      "payable": false,
      "stateMutability": "view",
      "type": "function"
    },
    {
      "constant": true,
      "inputs": [],
      "name": "numberOfEvents",
      "outputs": [
        {
          "name": "",
          "type": "uint256"
        }
      ],
      "payable": false,
      "stateMutability": "view",
      "type": "function"
    },
    {
      "constant": true,
      "inputs": [
        {
          "name": "",
          "type": "uint256"
        },
        {
          "name": "",
          "type": "address"
        }
      ],
      "name": "memberState",
      "outputs": [
        {
          "name": "",
          "type": "uint8"
        }
      ],
      "payable": false,
      "stateMutability": "view",
      "type": "function"
    },
    {
      "constant": true,
      "inputs": [],
      "name": "admin",
      "outputs": [
        {
          "name": "",
          "type": "address"
        }
      ],
      "payable": false,
      "stateMutability": "view",
      "type": "function"
    },
    {
      "inputs": [],
      "payable": false,
      "stateMutability": "nonpayable",
      "type": "constructor"
    },
    {
      "anonymous": false,
      "inputs": [
        {
          "indexed": true,
          "name": "index",
          "type": "uint256"
        },
        {
          "indexed": false,
          "name": "publisher",
          "type": "address"
        }
      ],
      "name": "EventCreated",
      "type": "event"
    },
    {
      "anonymous": false,
      "inputs": [
        {
          "indexed": true,
          "name": "index",
          "type": "uint256"
        },
        {
          "indexed": false,
          "name": "publisher",
          "type": "address"
        },
        {
          "indexed": false,
          "name": "state",
          "type": "uint256"
        }
      ],
      "name": "EventConcluded",
      "type": "event"
    },
    {
      "anonymous": false,
      "inputs": [
        {
          "indexed": true,
          "name": "index",
          "type": "uint256"
        },
        {
          "indexed": false,
          "name": "member",
          "type": "address"
        }
      ],
      "name": "MemberRegistered",
      "type": "event"
    },
    {
      "anonymous": false,
      "inputs": [
        {
          "indexed": true,
          "name": "index",
          "type": "uint256"
        },
        {
          "indexed": false,
          "name": "member",
          "type": "address"
        }
      ],
      "name": "MemberAttended",
      "type": "event"
    },
    {
      "constant": false,
      "inputs": [
        {
          "name": "_tokenManager",
          "type": "address"
        },
        {
          "name": "_rewardManager",
          "type": "address"
        },
        {
          "name": "_creationCost",
          "type": "uint256"
        },
        {
          "name": "_maxAttendanceBonus",
          "type": "uint256"
        }
      ],
      "name": "initContract",
      "outputs": [],
      "payable": false,
      "stateMutability": "nonpayable",
      "type": "function"
    },
    {
      "constant": false,
      "inputs": [
        {
          "name": "_creationCost",
          "type": "uint256"
        },
        {
          "name": "_maxAttendanceBonus",
          "type": "uint256"
        }
      ],
      "name": "updateStakes",
      "outputs": [],
      "payable": false,
      "stateMutability": "nonpayable",
      "type": "function"
    },
    {
      "constant": true,
      "inputs": [
        {
          "name": "_index",
          "type": "uint256"
        }
      ],
      "name": "getEvent",
      "outputs": [
        {
          "name": "_name",
          "type": "string"
        },
        {
          "name": "_maxAttendees",
          "type": "uint24"
        },
        {
          "name": "_organiser",
          "type": "address"
        },
        {
          "name": "_requiredStake",
          "type": "uint256"
        },
        {
          "name": "_currentAttendees",
          "type": "uint24"
        },
        {
          "name": "_totalStaked",
          "type": "uint256"
        },
        {
          "name": "_state",
          "type": "uint24"
        },
        {
          "name": "_payout",
          "type": "uint256"
        }
      ],
      "payable": false,
      "stateMutability": "view",
      "type": "function"
    },
    {
      "constant": false,
      "inputs": [
        {
          "name": "_index",
          "type": "uint256"
        },
        {
          "name": "_limit",
          "type": "uint24"
        }
      ],
      "name": "increaseParticipantLimit",
      "outputs": [],
      "payable": false,
      "stateMutability": "nonpayable",
      "type": "function"
    },
    {
      "constant": false,
      "inputs": [
        {
          "name": "_index",
          "type": "uint256"
        }
      ],
      "name": "endEvent",
      "outputs": [],
      "payable": false,
      "stateMutability": "nonpayable",
      "type": "function"
    },
    {
      "constant": false,
      "inputs": [
        {
          "name": "_index",
          "type": "uint256"
        }
      ],
      "name": "cancelEvent",
      "outputs": [],
      "payable": false,
      "stateMutability": "nonpayable",
      "type": "function"
    },
    {
      "constant": false,
      "inputs": [
        {
          "name": "_index",
          "type": "uint256"
        }
      ],
      "name": "confirmAttendance",
      "outputs": [],
      "payable": false,
      "stateMutability": "nonpayable",
      "type": "function"
    },
    {
      "constant": false,
      "inputs": [
        {
          "name": "_from",
          "type": "address"
        },
        {
          "name": "_value",
          "type": "uint256"
        },
        {
          "name": "_data",
          "type": "bytes"
        }
      ],
      "name": "tokenFallback",
      "outputs": [],
      "payable": false,
      "stateMutability": "nonpayable",
      "type": "function"
    },
    {
      "constant": true,
      "inputs": [
        {
          "name": "_member",
          "type": "address"
        },
        {
          "name": "_index",
          "type": "uint256"
        }
      ],
      "name": "payout",
      "outputs": [
        {
          "name": "",
          "type": "uint256"
        }
      ],
      "payable": false,
      "stateMutability": "view",
      "type": "function"
    }
  ],
  "bytecode": "0x608060405260146003556005600455600060055534801561001f57600080fd5b5060028054600160a060020a03191633179055611135806100416000396000f3006080604052600436106100f05763ffffffff7c0100000000000000000000000000000000000000000000000000000000600035041663037b286c81146100f55780630b7914301461011c5780630f4ef8a614610209578063117de2fd1461023a57806314e608131461025e5780632a709b14146102735780632ebe214f14610288578063330a347b146102aa5780633f69babd146102c25780634943fb90146102da5780634a50c4a2146102f55780635b9c86fb1461030a5780635cc2f2c5146103445780636d1884e0146103715780637a9933a414610462578063c0ee0b8a1461047a578063f851a440146104ab575b600080fd5b34801561010157600080fd5b5061010a6104c0565b60408051918252519081900360200190f35b34801561012857600080fd5b506101346004356104c6565b6040805160208082018c905262ffffff808c169383019390935289831660608301528883166080830152600160a060020a03881660a083015260c0820187905291851660e0820152610100810184905261012081018390526101408082528c51908201528b51909182916101608301918e019080838360005b838110156101c55781810151838201526020016101ad565b50505050905090810190601f1680156101f25780820380516001836020036101000a031916815260200191505b509b50505050505050505050505060405180910390f35b34801561021557600080fd5b5061021e6105c4565b60408051600160a060020a039092168252519081900360200190f35b34801561024657600080fd5b5061010a600160a060020a03600435166024356105d3565b34801561026a57600080fd5b5061010a6107c7565b34801561027f57600080fd5b5061021e6107cd565b34801561029457600080fd5b506102a860043562ffffff602435166107dc565b005b3480156102b657600080fd5b506102a8600435610900565b3480156102ce57600080fd5b506102a8600435610a78565b3480156102e657600080fd5b506102a8600435602435610bd8565b34801561030157600080fd5b5061010a610c4a565b34801561031657600080fd5b5061032e600435600160a060020a0360243516610c50565b6040805160ff9092168252519081900360200190f35b34801561035057600080fd5b506102a8600160a060020a0360043581169060243516604435606435610c70565b34801561037d57600080fd5b50610389600435610d1f565b60405180806020018962ffffff1662ffffff16815260200188600160a060020a0316600160a060020a031681526020018781526020018662ffffff1662ffffff1681526020018581526020018462ffffff1662ffffff16815260200183815260200182810382528a818151815260200191508051906020019080838360005b83811015610420578181015183820152602001610408565b50505050905090810190601f16801561044d5780820380516001836020036101000a031916815260200191505b50995050505050505050505060405180910390f35b34801561046e57600080fd5b506102a8600435610e2e565b34801561048657600080fd5b506102a860048035600160a060020a0316906024803591604435918201910135610ecd565b3480156104b757600080fd5b5061021e610fc5565b60045481565b60066020908152600091825260409182902080548351601f6002600019610100600186161502019093169290920491820184900484028101840190945280845290929183919083018282801561055d5780601f106105325761010080835404028352916020019161055d565b820191906000526020600020905b81548152906001019060200180831161054057829003601f168201915b50505050600183015460028401546003850154600486015460058701546006909701549596939562ffffff8085169650630100000085048116956601000000000000860482169569010000000000000000009004600160a060020a0316949391909116918a565b600154600160a060020a031681565b6000818152600760209081526040808320600160a060020a038616845290915281205483908390600160ff909116101561065c57604080516000805160206110ea833981519152815260206004820152601360248201527f55736572206e6f74207265676973746572656400000000000000000000000000604482015290519081900360640190fd5b6000848152600760209081526040808320600160a060020a038916845290915290205460ff166063146106de57604080516000805160206110ea833981519152815260206004820152601160248201527f55736572206e6f7420617474656e646564000000000000000000000000000000604482015290519081900360640190fd5b600084815260066020526040902060040154600162ffffff9091161161075357604080516000805160206110ea833981519152815260206004820152600f60248201527f4576656e74206e6f7420656e6465640000000000000000000000000000000000604482015290519081900360640190fd5b60008481526006602052604090206004015462ffffff166003141561078b5760008481526006602052604090206001015492506107bf565b60008481526006602052604090206004015462ffffff16600314156107bf5760008481526006602052604090206005015492505b505092915050565b60035481565b600054600160a060020a031681565b600082815260066020526040902060020154829069010000000000000000009004600160a060020a0316331461086157604080516000805160206110ea833981519152815260206004820152601560248201527f4163636f756e74206e6f74206f7267616e697365720000000000000000000000604482015290519081900360640190fd5b60008381526006602052604090206002015462ffffff8084169116106108d657604080516000805160206110ea833981519152815260206004820152601b60248201527f4c696d69742063616e206f6e6c7920626520696e637265617365640000000000604482015290519081900360640190fd5b50600091825260066020526040909120600201805462ffffff191662ffffff909216919091179055565b600081815260066020526040902060020154819069010000000000000000009004600160a060020a0316331461098557604080516000805160206110ea833981519152815260206004820152601560248201527f4163636f756e74206e6f74206f7267616e697365720000000000000000000000604482015290519081900360640190fd5b60008281526006602052604090206004015462ffffff166001146109f857604080516000805160206110ea833981519152815260206004820152601060248201527f4576656e74206e6f742061637469766500000000000000000000000000000000604482015290519081900360640190fd5b6000828152600660205260409020600401805462ffffff19166002179055610a1f82610fd4565b60008281526006602090815260409182902060040154825133815262ffffff90911691810191909152815184927f0319ed83903642d5866fe550b2d2c26890c1f8ffce5b4c96fa74c399f5df326e928290030190a25050565b600081815260066020526040902060020154819069010000000000000000009004600160a060020a03163314610afd57604080516000805160206110ea833981519152815260206004820152601560248201527f4163636f756e74206e6f74206f7267616e697365720000000000000000000000604482015290519081900360640190fd5b60008281526006602052604090206004015462ffffff16600114610b7057604080516000805160206110ea833981519152815260206004820152601060248201527f4576656e74206e6f742061637469766500000000000000000000000000000000604482015290519081900360640190fd5b600082815260066020908152604091829020600401805462ffffff191660031790819055825133815262ffffff9190911691810191909152815184927f0319ed83903642d5866fe550b2d2c26890c1f8ffce5b4c96fa74c399f5df326e928290030190a25050565b600254600160a060020a03163314610c3f57604080516000805160206110ea833981519152815260206004820152600e60248201527f4e6f7420617574686f7269657364000000000000000000000000000000000000604482015290519081900360640190fd5b600391909155600455565b60055481565b600760209081526000928352604080842090915290825290205460ff1681565b600254600160a060020a03163314610cd757604080516000805160206110ea833981519152815260206004820152600e60248201527f4e6f7420617574686f7269657364000000000000000000000000000000000000604482015290519081900360640190fd5b60008054600160a060020a0395861673ffffffffffffffffffffffffffffffffffffffff19918216179091556001805494909516931692909217909255600391909155600455565b60008181526006602090815260408083208054825160026001831615610100026000190190921691909104601f81018590048502820185019093528281526060949384938493849384938493849391830182828015610dbf5780601f10610d9457610100808354040283529160200191610dbf565b820191906000526020600020905b815481529060010190602001808311610da257829003601f168201915b50505060009b8c5250506006602052604090992060028101546001820154600383015460048401546005909401549c9d62ffffff8085169e600160a060020a0369010000000000000000008704169e50939c50630100000090940484169a509098509290911695509350915050565b600081815260076020908152604080832033845290915290205460ff16600114610ea757604080516000805160206110ea833981519152815260206004820152601360248201527f55736572206e6f74207265676973746572656400000000000000000000000000604482015290519081900360640190fd5b60009081526007602090815260408083203384529091529020805460ff19166063179055565b600054600160a060020a03163314610f3457604080516000805160206110ea833981519152815260206004820152601c60248201527f4e6f74207265676973746572656420746f6b656e206164647265737300000000604482015290519081900360640190fd5b30600160a060020a03168282604051808383808284378201915050925050506000604051808303816000865af19150501515610fbf57604080516000805160206110ea833981519152815260206004820181905260248201527f43616c6c206f6e20656e636f6465642066756e6374696f6e206661696c65642e604482015290519081900360640190fd5b50505050565b600254600160a060020a031681565b60008181526006602052604081206002810154600390910154630100000090910462ffffff169081151561100457fe5b600084815260066020819052604090912090810154600290910154600454939092049350611062926110559261104991906601000000000000900462ffffff1661107b565b9063ffffffff6110b416565b829063ffffffff6110d716565b6000928352600660205260409092206005019190915550565b60008083151561108e57600091506110ad565b5082820282848281151561109e57fe5b04146110a957600080fd5b8091505b5092915050565b6000808083116110c357600080fd5b82848115156110ce57fe5b04949350505050565b6000828201838110156110a957600080fd0008c379a000000000000000000000000000000000000000000000000000000000a165627a7a7230582080136c040fd13fbcbbbb534ff55f1a34dbb1bcb0e8045a375bdf3b3bee9e52bc0029",
  "source": "pragma solidity ^0.4.24;\r\n\r\nimport \"./openzeppelin-solidity/math/SafeMath.sol\";\r\nimport \"./RewardIssuerInterface.sol\";\r\nimport \"./ERC223/ERC223Receiver.sol\";\r\nimport \"./openzeppelin-solidity/token/ERC20/IERC20.sol\";\r\n\r\ncontract EventManager is RewardIssuerInterface, ERC223Receiver {\r\n    using SafeMath for uint256;\r\n\r\n    address public tokenManager;\r\n    address public rewardManager;\r\n    address public admin; // Debug admin\r\n\r\n    uint256 public creationCost = 20; // Defaulting for demo\r\n    uint256 public maxAttendanceBonus = 5;\r\n    uint256 public numberOfEvents = 0;\r\n\r\n    mapping(uint256 => EventData) public events;\r\n    /// For a reward to be issued, user state must be set to 99, meaning \"Rewardable\" this is to be considered the final state of users in issuer contracts\r\n    mapping(uint256 => mapping(address => uint8)) public memberState;\r\n    // States:\r\n    // 0: Not registered\r\n    // 1: RSVP'd\r\n    // 99: Attended (Rewardable)\r\n  \r\n    struct EventData{\r\n        string name;\r\n        uint256 requiredStake;\r\n        uint24 maxAttendees;\r\n        uint24 currentAttendees;\r\n        uint24 attended;\r\n        address organiser;\r\n        uint256 totalStaked;\r\n        uint24 state;\r\n        uint256 payout;\r\n        uint256 participantLimit;\r\n    }\r\n\r\n    event EventCreated(uint256 indexed index, address publisher);\r\n    event EventConcluded(uint256 indexed index, address publisher, uint256 state);\r\n    event MemberRegistered(uint256 indexed index, address member);\r\n    event MemberAttended(uint256 indexed index, address member);\r\n\r\n    modifier onlyAdmin() {\r\n        require(msg.sender == admin, \"Not authoriesd\");\r\n        _;\r\n    }\r\n\r\n    modifier onlyMember(address _member, uint256 _index){\r\n        require(memberState[_index][_member] >= 1, \"User not registered\");\r\n        _;\r\n    }\r\n\r\n    modifier onlyToken(){\r\n        require(msg.sender == address(tokenManager), \"Not registered token address\");\r\n        _;\r\n    }\r\n\r\n    modifier onlyRewardManager() {\r\n        require(msg.sender == rewardManager, \"Only reward manager authorised\");\r\n        _;\r\n    }\r\n\r\n    modifier onlyManager(uint256 _index){\r\n        require(events[_index].organiser == msg.sender, \"Account not organiser\");\r\n        _;\r\n    }\r\n\r\n    /**\r\n      * @dev Sets the address of the admin to the \r\n      *     msg.sender.\r\n      */\r\n    constructor () public {\r\n        admin = msg.sender;\r\n    }\r\n\r\n    /**\r\n      * @dev Gives the EventManager the addresses of \r\n      *     the functions it may need to talk to or be called \r\n      *     by (for modifiers). This function is only callable by the \r\n      *     admin/creator of this contract.\r\n      * @param _tokenManager : The address of the token manager contract\r\n      * @param _rewardManager : The address of the reward manager contract\r\n      * @param _creationCost : The price of creating an event\r\n      * @param _maxAttendanceBonus : The bonus the event will recive for \r\n      *     running an event that maxed out on atendance. \r\n      */\r\n    function initContract(\r\n        address _tokenManager, \r\n        address _rewardManager, \r\n        uint256 _creationCost, \r\n        uint256 _maxAttendanceBonus\r\n    ) \r\n        public \r\n        onlyAdmin() \r\n    {\r\n        tokenManager = _tokenManager;\r\n        rewardManager = _rewardManager;\r\n        creationCost = _creationCost;\r\n        maxAttendanceBonus = _maxAttendanceBonus;\r\n    }\r\n\r\n    /**\r\n      * @dev Updates the creation cost and bonus for events \r\n      *     that max out attendance. This function is only callable by the \r\n      *     admin/creator of this contract.\r\n      * @param _creationCost : The price of creating an event\r\n      * @param _maxAttendanceBonus : The bonus the event will recive for \r\n      *     running an event that maxed out on atendance. \r\n      */\r\n    function updateStakes(\r\n        uint256 _creationCost, \r\n        uint256 _maxAttendanceBonus\r\n    ) \r\n        public \r\n        onlyAdmin()\r\n    {\r\n        creationCost = _creationCost;\r\n        maxAttendanceBonus = _maxAttendanceBonus;\r\n    }\r\n\r\n    /**\r\n      * @dev Creates an event. \r\n      * @param _name : The name of the event. \r\n      * @param _maxAttendees : The max number of attendees \r\n      *     for this event. \r\n      * @param _organiser : The orgoniser of the event\r\n      * @param _requiredStake : The price of a 'ticket' for the \r\n      *     event. \r\n      */\r\n    function _createEvent(\r\n        string _name, \r\n        uint24 _maxAttendees, \r\n        address _organiser, \r\n        uint256 _requiredStake,\r\n        uint256 _participantLimit\r\n    ) \r\n        private \r\n    {\r\n        require(_forwardStake(creationCost, _organiser), \"Must forward funds to the reward manager\");\r\n        numberOfEvents += 1;\r\n        events[numberOfEvents].name = _name;\r\n        events[numberOfEvents].maxAttendees = _maxAttendees;\r\n        events[numberOfEvents].organiser = _organiser;\r\n        events[numberOfEvents].requiredStake = _requiredStake;\r\n        events[numberOfEvents].participantLimit = _participantLimit;\r\n        events[numberOfEvents].currentAttendees = 0;\r\n        events[numberOfEvents].totalStaked = 0;\r\n        events[numberOfEvents].state = 0;\r\n        emit EventCreated(numberOfEvents, _organiser);\r\n        // bytes4 CREATE_SIG = bytes4(keccak256(\"_createEvent(string,string,string,uint24,address,uint256)\"));\r\n    }\r\n\r\n    /**\r\n      * @dev Gets the details of an event.\r\n      * @param _index : The index of the event in the array of events. \r\n      * @return Event details. \r\n      */\r\n    function getEvent(uint256 _index) \r\n        public \r\n        view \r\n        returns(\r\n            string _name, \r\n            uint24 _maxAttendees, \r\n            address _organiser,\r\n            uint256 _requiredStake, \r\n            uint24 _currentAttendees,\r\n            uint256 _totalStaked,\r\n            uint24 _state,\r\n            uint256 _payout\r\n        )\r\n    {\r\n        _name = events[_index].name;\r\n        _maxAttendees = events[_index].maxAttendees;\r\n        _organiser = events[_index].organiser;\r\n        _requiredStake = events[_index].requiredStake;\r\n        _currentAttendees = events[_index].currentAttendees;\r\n        _totalStaked = events[_index].totalStaked;\r\n        _state = events[_index].state;\r\n        _payout = events[_index].payout;\r\n        \r\n    }\r\n\r\n    /**\r\n      * @dev Increases the limit on the number of participants. \r\n      *     Only the event manager can call this function.\r\n      * @param _index : The index of the event.\r\n      * @param _limit : The new participation limit for the event. \r\n      */\r\n    function increaseParticipantLimit(uint256 _index, uint24 _limit) \r\n        public \r\n        onlyManager(_index)\r\n    {\r\n        require(events[_index].maxAttendees < _limit, \"Limit can only be increased\");\r\n        events[_index].maxAttendees = _limit;\r\n    }\r\n\r\n    /**\r\n      * @dev Allows an event manager to end an event. This function is \r\n      *     only callable by the manager of the event. \r\n      * @param _index : The index of the event in the array of \r\n      *     events. \r\n      */\r\n    function endEvent(uint256 _index) \r\n        public \r\n        onlyManager(_index)\r\n    {\r\n        require(events[_index].state == 1, \"Event not active\");\r\n        events[_index].state = 2;\r\n        _calcPayout(_index);\r\n        emit EventConcluded(_index, msg.sender, events[_index].state);\r\n    }\r\n\r\n    /**\r\n      * @dev Allows an event manager to cancel an event. \r\n      *     This function is only callable by the event manager.\r\n      * @param _index : The index of the event in the array of events. \r\n      */\r\n    function cancelEvent(uint256 _index) \r\n        public \r\n        onlyManager(_index)\r\n    {\r\n        require(events[_index].state == 1, \"Event not active\");\r\n        events[_index].state = 3;\r\n        emit EventConcluded(_index, msg.sender, events[_index].state);\r\n    }\r\n\r\n    /**\r\n      * @dev Forwards an amount of a members stake. \r\n      * @param _amount : The amount of steak to forward.\r\n      * @param _member : The members address. \r\n      */\r\n    function _forwardStake(uint256 _amount, address _member) \r\n        internal \r\n        returns(bool) \r\n    {\r\n        IERC20 token = IERC20(tokenManager);\r\n        token.transfer(_member, _amount);    \r\n        return true;\r\n    }\r\n\r\n    /**\r\n      * @dev Allows a member to RSVP for an event.\r\n      * @param _index : The index of the event.\r\n      * @param _member : Address of the member RSVPing. \r\n      */\r\n    function _rsvp(uint256 _index, address _member) \r\n        private \r\n    {\r\n        require(_forwardStake(events[_index].requiredStake, _member), \"Must forward funds to the reward manager\");\r\n        /// Send stake to reward manager\r\n        /// Updated state\r\n        memberState[_index][_member] = 1;\r\n        events[_index].totalStaked.add(events[_index].requiredStake);\r\n        events[_index].currentAttendees += 1;\r\n        emit MemberRegistered(_index, _member);\r\n        /** bytes4 RSVP_SIG = bytes4(keccak256(\"rsvp(uint256,address)\"));\r\n          * To encode it with paramiters (ie not just the function signature)\r\n          * add the paramiters after the :\r\n          * (numbering (1 2 3) for ease of reading)\r\n          * this.call(1 bytes32(2 keccak256(3 \"toEncode(uint8)\")3 )2, 87 )1;\r\n          * this.call(  bytes32(  keccak256(  \"toEncode(uint8)\")  ),  87 );\r\n          * bytes4(keccak256(\"rsvp(uint256,address)\"), 123, \"0x0\");\r\n          */\r\n    }\r\n\r\n    /**\r\n      * @dev Allows a member to confirm attendance. Uses the \r\n      *     msg.sender as the address of the member. \r\n      * @param _index : The index of the event in the array.\r\n      */\r\n    function confirmAttendance(uint256 _index) \r\n        public \r\n    {\r\n        require(memberState[_index][msg.sender] == 1, \"User not registered\");\r\n        memberState[_index][msg.sender] = 99;\r\n        // Manual exposed attend until Proof of Attendance \r\n        //partial release mechanisim is finished\r\n    }\r\n    \r\n    /**\r\n      * @dev Allows the token manager to send encoded function calls \r\n      *     to the event manager (this contract). This means any function\r\n      *     that is not external [needs citation] to be called. \r\n      * @param _from : The origional sendre of the function call.\r\n      * @param _value : The amount of tokens sent with the call.\r\n      * @param _data : The encoded function call. \r\n      */\r\n    function tokenFallback(address _from, uint _value, bytes _data) \r\n        external \r\n        onlyToken() \r\n    {\r\n        require(this.call(_data), \"Call on encoded function failed.\");\r\n        // 2 kinds of request with stake \r\n        // 1. Create, which has all the event info and the creation stake\r\n        // 2. an event index and the required stake\r\n        // event Testing(bytes4 signure, bytes4 signure2, bytes4 signure4, bytes data);\r\n    }\r\n\r\n    /**\r\n      * @dev Calculates the payout for atendees.\r\n      * @param _index : The index of the event in the event manager.\r\n      */\r\n    function _calcPayout(uint256 _index) \r\n        internal \r\n    {\r\n        uint256 reward = events[_index].totalStaked / events[_index].currentAttendees; \r\n        events[_index].payout = reward.add(maxAttendanceBonus.mul(events[_index].attended).div(events[_index].participantLimit));\r\n    }\r\n\r\n    /**\r\n      * @dev Pays out an atendee of an event. This function is \r\n      *     only callable by the atendee. \r\n      * @param _member : The member to be paid out \r\n      * @param _index : The index of the event of the array. \r\n      */\r\n    function payout(address _member, uint256 _index) \r\n        external \r\n        view \r\n        // onlyRewardManager() \r\n        onlyMember(_member, _index) \r\n        returns(uint256)\r\n    {\r\n        require(memberState[_index][_member] == 99, \"User not attended\");\r\n        require(events[_index].state > 1, \"Event not ended\");\r\n        if(events[_index].state == 3){\r\n            return events[_index].requiredStake;\r\n        } else if(events[_index].state == 3) {\r\n            return events[_index].payout;\r\n        }\r\n    }\r\n}\r\n\r\n/*\r\n    This contract diverts stake to the reward manager, sets up a user in a standardised struct\r\n\r\n    rewardable = 99\r\n\r\n    The reward manager if it finds in the user mapping state = 99 it allows payment, the amount being a standardised function that returns a uint\r\n\r\n    Calculating the reward in relation to attendance rate is done in that function\r\n*/",
  "sourcePath": "C:\\Users\\Veronica Coutts\\Desktop\\Desktop\\Work\\LinumLabs\\proteav2\\contracts\\contracts\\EventManager.sol",
  "compiler": {
    "name": "solc",
    "version": "0.4.24+commit.e67f0147.Emscripten.clang"
  },
  "schemaVersion": "2.0.1",
  "updatedAt": "2018-11-26T15:38:45.498Z"
}