{
  "contractName": "PseudoDaiToken",
  "abi": [
    {
      "constant": true,
      "inputs": [],
      "name": "name",
      "outputs": [
        {
          "name": "",
          "type": "string"
        }
      ],
      "payable": false,
      "stateMutability": "view",
      "type": "function"
    },
    {
      "constant": true,
      "inputs": [],
      "name": "decimals",
      "outputs": [
        {
          "name": "",
          "type": "uint8"
        }
      ],
      "payable": false,
      "stateMutability": "view",
      "type": "function"
    },
    {
      "constant": true,
      "inputs": [],
      "name": "symbol",
      "outputs": [
        {
          "name": "",
          "type": "string"
        }
      ],
      "payable": false,
      "stateMutability": "view",
      "type": "function"
    },
    {
      "inputs": [
        {
          "name": "_name",
          "type": "string"
        },
        {
          "name": "_symbol",
          "type": "string"
        },
        {
          "name": "_decimals",
          "type": "uint8"
        }
      ],
      "payable": false,
      "stateMutability": "nonpayable",
      "type": "constructor"
    },
    {
      "anonymous": false,
      "inputs": [
        {
          "indexed": true,
          "name": "owner",
          "type": "address"
        },
        {
          "indexed": true,
          "name": "spender",
          "type": "address"
        },
        {
          "indexed": false,
          "name": "value",
          "type": "uint256"
        }
      ],
      "name": "Approval",
      "type": "event"
    },
    {
      "anonymous": false,
      "inputs": [
        {
          "indexed": true,
          "name": "from",
          "type": "address"
        },
        {
          "indexed": true,
          "name": "to",
          "type": "address"
        },
        {
          "indexed": false,
          "name": "value",
          "type": "uint256"
        }
      ],
      "name": "Transfer",
      "type": "event"
    },
    {
      "constant": false,
      "inputs": [],
      "name": "mint",
      "outputs": [],
      "payable": false,
      "stateMutability": "nonpayable",
      "type": "function"
    },
    {
      "constant": false,
      "inputs": [
        {
          "name": "_to",
          "type": "address"
        },
        {
          "name": "_value",
          "type": "uint256"
        }
      ],
      "name": "transfer",
      "outputs": [
        {
          "name": "",
          "type": "bool"
        }
      ],
      "payable": false,
      "stateMutability": "nonpayable",
      "type": "function"
    },
    {
      "constant": false,
      "inputs": [
        {
          "name": "_from",
          "type": "address"
        },
        {
          "name": "_to",
          "type": "address"
        },
        {
          "name": "_value",
          "type": "uint256"
        }
      ],
      "name": "transferFrom",
      "outputs": [
        {
          "name": "",
          "type": "bool"
        }
      ],
      "payable": false,
      "stateMutability": "nonpayable",
      "type": "function"
    },
    {
      "constant": false,
      "inputs": [
        {
          "name": "_spender",
          "type": "address"
        },
        {
          "name": "_value",
          "type": "uint256"
        }
      ],
      "name": "approve",
      "outputs": [
        {
          "name": "success",
          "type": "bool"
        }
      ],
      "payable": false,
      "stateMutability": "nonpayable",
      "type": "function"
    },
    {
      "constant": false,
      "inputs": [
        {
          "name": "_spender",
          "type": "address"
        },
        {
          "name": "_addedValue",
          "type": "uint256"
        }
      ],
      "name": "increaseApproval",
      "outputs": [
        {
          "name": "",
          "type": "bool"
        }
      ],
      "payable": false,
      "stateMutability": "nonpayable",
      "type": "function"
    },
    {
      "constant": false,
      "inputs": [
        {
          "name": "_spender",
          "type": "address"
        },
        {
          "name": "_subtractedValue",
          "type": "uint256"
        }
      ],
      "name": "decreaseApproval",
      "outputs": [
        {
          "name": "",
          "type": "bool"
        }
      ],
      "payable": false,
      "stateMutability": "nonpayable",
      "type": "function"
    },
    {
      "constant": true,
      "inputs": [
        {
          "name": "_owner",
          "type": "address"
        },
        {
          "name": "_spender",
          "type": "address"
        }
      ],
      "name": "allowance",
      "outputs": [
        {
          "name": "remaining",
          "type": "uint256"
        }
      ],
      "payable": false,
      "stateMutability": "view",
      "type": "function"
    },
    {
      "constant": true,
      "inputs": [],
      "name": "totalSupply",
      "outputs": [
        {
          "name": "",
          "type": "uint256"
        }
      ],
      "payable": false,
      "stateMutability": "view",
      "type": "function"
    },
    {
      "constant": true,
      "inputs": [
        {
          "name": "_owner",
          "type": "address"
        }
      ],
      "name": "balanceOf",
      "outputs": [
        {
          "name": "",
          "type": "uint256"
        }
      ],
      "payable": false,
      "stateMutability": "view",
      "type": "function"
    }
  ],
  "bytecode": "0x608060405234801561001057600080fd5b50604051610cb8380380610cb883398101604090815281516020808401519284015191840180519094939093019261004e916000919086019061007f565b50815161006290600190602085019061007f565b506002805460ff191660ff929092169190911790555061011a9050565b828054600181600116156101000203166002900490600052602060002090601f016020900481019282601f106100c057805160ff19168380011785556100ed565b828001600101855582156100ed579182015b828111156100ed5782518255916020019190600101906100d2565b506100f99291506100fd565b5090565b61011791905b808211156100f95760008155600101610103565b90565b610b8f806101296000396000f3006080604052600436106100b95763ffffffff7c010000000000000000000000000000000000000000000000000000000060003504166306fdde0381146100be578063095ea7b3146101485780631249c58b1461018057806318160ddd1461019757806323b872dd146101be578063313ce567146101e8578063661884631461021357806370a082311461023757806395d89b4114610258578063a9059cbb1461026d578063d73dd62314610291578063dd62ed3e146102b5575b600080fd5b3480156100ca57600080fd5b506100d36102dc565b6040805160208082528351818301528351919283929083019185019080838360005b8381101561010d5781810151838201526020016100f5565b50505050905090810190601f16801561013a5780820380516001836020036101000a031916815260200191505b509250505060405180910390f35b34801561015457600080fd5b5061016c600160a060020a036004351660243561036a565b604080519115158252519081900360200190f35b34801561018c57600080fd5b506101956103d0565b005b3480156101a357600080fd5b506101ac6106af565b60408051918252519081900360200190f35b3480156101ca57600080fd5b5061016c600160a060020a03600435811690602435166044356106b5565b3480156101f457600080fd5b506101fd61082c565b6040805160ff9092168252519081900360200190f35b34801561021f57600080fd5b5061016c600160a060020a0360043516602435610835565b34801561024357600080fd5b506101ac600160a060020a0360043516610924565b34801561026457600080fd5b506100d361093f565b34801561027957600080fd5b5061016c600160a060020a0360043516602435610999565b34801561029d57600080fd5b5061016c600160a060020a0360043516602435610a7a565b3480156102c157600080fd5b506101ac600160a060020a0360043581169060243516610b13565b6000805460408051602060026001851615610100026000190190941693909304601f810184900484028201840190925281815292918301828280156103625780601f1061033757610100808354040283529160200191610362565b820191906000526020600020905b81548152906001019060200180831161034557829003601f168201915b505050505081565b336000818152600460209081526040808320600160a060020a038716808552908352818420869055815186815291519394909390927f8c5be1e5ebec7d5bd14f71427d1e84f3dd0314c0f7b2291e5b200ac8c7c3b925928290030190a350600192915050565b3360009081526006602052604090205460ff161580610404575033600090815260066020526040902054610100900460ff16155b8061042557503360009081526006602052604090205462010000900460ff16155b151561049257604080517f08c379a000000000000000000000000000000000000000000000000000000000815260206004820152601f60248201527f416c6c206672656520746f6b656e732068617665206265656e20757365642e00604482015290519081900360640190fd5b3360009081526006602052604090205460ff16156106105733600090815260066020526040902054610100900460ff161561056c57336000908152600660205260409020805462ff00001916620100001790556003546104f990607d63ffffffff610b3e16565b503360009081526005602052604090205461051b90607d63ffffffff610b3e16565b336000818152600560209081526040808320949094558351607d81529351929391927fddf252ad1be2c89b69c2b068fc378daa952ba7f163c4a11628f55a4df523b3ef9281900390910190a361060b565b336000908152600660205260409020805461ff00191661010017905560035461059c90607d63ffffffff610b3e16565b50336000908152600560205260409020546105be90607d63ffffffff610b3e16565b336000818152600560209081526040808320949094558351607d81529351929391927fddf252ad1be2c89b69c2b068fc378daa952ba7f163c4a11628f55a4df523b3ef9281900390910190a35b6106ad565b336000908152600660205260409020805460ff1916600117905560035461063e9060fa63ffffffff610b3e16565b50336000908152600560205260409020546106609060fa63ffffffff610b3e16565b33600081815260056020908152604080832094909455835160fa81529351929391927fddf252ad1be2c89b69c2b068fc378daa952ba7f163c4a11628f55a4df523b3ef9281900390910190a35b565b60035490565b600160a060020a0383166000908152600560205260408120548211156106da57600080fd5b600160a060020a038416600090815260046020908152604080832033845290915290205482111561070a57600080fd5b600160a060020a038316151561071f57600080fd5b600160a060020a038416600090815260056020526040902054610748908363ffffffff610b5116565b600160a060020a03808616600090815260056020526040808220939093559085168152205461077d908363ffffffff610b3e16565b600160a060020a0380851660009081526005602090815260408083209490945591871681526004825282812033825290915220546107c1908363ffffffff610b5116565b600160a060020a03808616600081815260046020908152604080832033845282529182902094909455805186815290519287169391927fddf252ad1be2c89b69c2b068fc378daa952ba7f163c4a11628f55a4df523b3ef929181900390910190a35060019392505050565b60025460ff1681565b336000908152600460209081526040808320600160a060020a038616845290915281205480831061088957336000908152600460209081526040808320600160a060020a03881684529091528120556108be565b610899818463ffffffff610b5116565b336000908152600460209081526040808320600160a060020a03891684529091529020555b336000818152600460209081526040808320600160a060020a0389168085529083529281902054815190815290519293927f8c5be1e5ebec7d5bd14f71427d1e84f3dd0314c0f7b2291e5b200ac8c7c3b925929181900390910190a35060019392505050565b600160a060020a031660009081526005602052604090205490565b60018054604080516020600284861615610100026000190190941693909304601f810184900484028201840190925281815292918301828280156103625780601f1061033757610100808354040283529160200191610362565b336000908152600560205260408120548211156109b557600080fd5b600160a060020a03831615156109ca57600080fd5b336000908152600560205260409020546109ea908363ffffffff610b5116565b3360009081526005602052604080822092909255600160a060020a03851681522054610a1c908363ffffffff610b3e16565b600160a060020a0384166000818152600560209081526040918290209390935580518581529051919233927fddf252ad1be2c89b69c2b068fc378daa952ba7f163c4a11628f55a4df523b3ef9281900390910190a350600192915050565b336000908152600460209081526040808320600160a060020a0386168452909152812054610aae908363ffffffff610b3e16565b336000818152600460209081526040808320600160a060020a0389168085529083529281902085905580519485525191937f8c5be1e5ebec7d5bd14f71427d1e84f3dd0314c0f7b2291e5b200ac8c7c3b925929081900390910190a350600192915050565b600160a060020a03918216600090815260046020908152604080832093909416825291909152205490565b81810182811015610b4b57fe5b92915050565b600082821115610b5d57fe5b509003905600a165627a7a72305820325fcdb877c4ef7baab389539ccfa0cd1dc9f554af9790f99260564ca08b2af50029",
  "source": "pragma solidity ^0.4.24;\r\n\r\nlibrary SafeMath {\r\n\r\n    /**\r\n    * @dev Multiplies two numbers, throws on overflow.\r\n    */\r\n    function mul(uint256 _a, uint256 _b) internal pure returns (uint256 c) {\r\n        // Gas optimization: this is cheaper than asserting 'a' not being zero, but the\r\n        // benefit is lost if 'b' is also tested.\r\n        // See: https://github.com/OpenZeppelin/openzeppelin-solidity/pull/522\r\n        if (_a == 0) {\r\n            return 0;\r\n        }\r\n\r\n        c = _a * _b;\r\n        assert(c / _a == _b);\r\n        return c;\r\n    }\r\n\r\n    /**\r\n    * @dev Integer division of two numbers, truncating the quotient.\r\n    */\r\n    function div(uint256 _a, uint256 _b) internal pure returns (uint256) {\r\n        // assert(_b > 0); // Solidity automatically throws when dividing by 0\r\n        // uint256 c = _a / _b;\r\n        // assert(_a == _b * c + _a % _b); // There is no case in which this doesn't hold\r\n        return _a / _b;\r\n    }\r\n\r\n    /**\r\n    * @dev Subtracts two numbers, throws on overflow (i.e. if subtrahend is greater than minuend).\r\n    */\r\n    function sub(uint256 _a, uint256 _b) internal pure returns (uint256) {\r\n        assert(_b <= _a);\r\n        return _a - _b;\r\n    }\r\n\r\n    /**\r\n    * @dev Adds two numbers, throws on overflow.\r\n    */\r\n    function add(uint256 _a, uint256 _b) internal pure returns (uint256 c) {\r\n        c = _a + _b;\r\n        assert(c >= _a);\r\n        return c;\r\n    }\r\n}\r\n\r\ncontract PseudoDaiToken {\r\n    using SafeMath for uint256;\r\n    // using SafeMath for uint8;\r\n    string public name;\r\n    string public symbol;\r\n    uint8 public decimals;\r\n    uint256 internal totalSupply_;\r\n\r\n    struct AccountDetails {\r\n        bool registered;\r\n        bool secondary;\r\n        bool backup;\r\n    }\r\n\r\n    mapping (address => mapping (address => uint256)) internal allowed;\r\n    mapping (address => uint256) internal balances;\r\n    mapping(address => AccountDetails) internal tokenOwners;\r\n\r\n    event Approval(\r\n        address indexed owner,\r\n        address indexed spender,\r\n        uint256 value\r\n    );\r\n    event Transfer(\r\n        address indexed from, \r\n        address indexed to, \r\n        uint256 value\r\n    );\r\n\r\n    constructor(string _name, string _symbol, uint8 _decimals) public {\r\n        name = _name;\r\n        symbol = _symbol;\r\n        decimals = _decimals;\r\n    }\r\n\r\n    /**\r\n      * @dev Mints free tokens to a user. Users can have a \r\n      *     max of 500 free tokens, given over 3 mints. \r\n      */\r\n    function mint() public {\r\n        require(\r\n            !tokenOwners[msg.sender].registered || \r\n            !tokenOwners[msg.sender].secondary || \r\n            !tokenOwners[msg.sender].backup, \r\n            \"All free tokens have been used.\"\r\n        );\r\n        if(tokenOwners[msg.sender].registered) {\r\n            if(tokenOwners[msg.sender].secondary){\r\n                tokenOwners[msg.sender].backup = true;\r\n                totalSupply_.add(125);\r\n                balances[msg.sender] = balances[msg.sender].add(125);\r\n                emit Transfer(0x0, msg.sender, 125);\r\n            } else {\r\n                tokenOwners[msg.sender].secondary = true;\r\n                totalSupply_.add(125);\r\n                balances[msg.sender] = balances[msg.sender].add(125);\r\n                emit Transfer(0x0, msg.sender, 125);\r\n            }\r\n        } else {\r\n            tokenOwners[msg.sender].registered = true;\r\n            totalSupply_.add(250);\r\n            balances[msg.sender] = balances[msg.sender].add(250);\r\n            emit Transfer(0x0, msg.sender, 250);\r\n        }\r\n    }\r\n\r\n    /**\r\n      * @dev Transfer token to a specified address\r\n      * @param _to    : The address to transfer to.\r\n      * @param _value : The amount to be transferred.\r\n      */\r\n    function transfer(\r\n        address _to, \r\n        uint256 _value\r\n    ) \r\n        public \r\n        returns (bool) \r\n    {\r\n        require(_value <= balances[msg.sender]);\r\n        require(_to != address(0));\r\n\r\n        balances[msg.sender] = balances[msg.sender].sub(_value);\r\n        balances[_to] = balances[_to].add(_value);\r\n        emit Transfer(msg.sender, _to, _value);\r\n        return true;\r\n    }\r\n\r\n    /**\r\n      * @dev Transfer tokens from one address to another\r\n      * @param _from     : address The address which you want to send tokens from\r\n      * @param _to       : address The address which you want to transfer to\r\n      * @param _value    : uint256 the amount of tokens to be transferred\r\n      */\r\n    function transferFrom(\r\n        address _from,\r\n        address _to,\r\n        uint256 _value\r\n    )\r\n        public \r\n        returns (bool)\r\n    {\r\n        // FREE DAI TOKENS :D\r\n        require(_value <= balances[_from]);\r\n        require(_value <= allowed[_from][msg.sender]);\r\n        require(_to != address(0));\r\n\r\n        balances[_from] = balances[_from].sub(_value);\r\n        balances[_to] = balances[_to].add(_value);\r\n        allowed[_from][msg.sender] = allowed[_from][msg.sender].sub(_value);\r\n        emit Transfer(_from, _to, _value);\r\n        return true;\r\n    }\r\n\r\n    /**\r\n      * @dev Approve the passed address to spend the specified amount of tokens on behalf of msg.sender.\r\n      *     Beware that changing an allowance with this method brings the risk that someone may use both the old\r\n      *     and the new allowance by unfortunate transaction ordering. One possible solution to mitigate this\r\n      *     race condition is to first reduce the spender's allowance to 0 and set the desired value afterwards:\r\n      *     https://github.com/ethereum/EIPs/issues/20#issuecomment-263524729\r\n      * @param _spender  : The address which will spend the funds.\r\n      * @param _value    : The amount of tokens to be spent.\r\n      */\r\n    function approve(\r\n        address _spender, \r\n        uint256 _value\r\n    ) \r\n        public \r\n        returns (bool success) \r\n    {\r\n        allowed[msg.sender][_spender] = _value;\r\n        emit Approval(msg.sender, _spender, _value);\r\n        success = true;\r\n    }\r\n\r\n    /**\r\n      * @dev Increase the amount of tokens that an owner allowed to a spender.\r\n      *     approve should be called when allowed[_spender] == 0. To increment\r\n      *     allowed value is better to use this function to avoid 2 calls (and wait until\r\n      *     the first transaction is mined)\r\n      *     From MonolithDAO Token.sol\r\n      * @param _spender      : The address which will spend the funds.\r\n      * @param _addedValue   : The amount of tokens to increase the allowance by.\r\n      */\r\n    function increaseApproval(\r\n        address _spender,\r\n        uint256 _addedValue\r\n    )\r\n        public\r\n        returns (bool)\r\n    {\r\n        allowed[msg.sender][_spender] = (\r\n            allowed[msg.sender][_spender].add(_addedValue));\r\n        emit Approval(msg.sender, _spender, allowed[msg.sender][_spender]);\r\n        return true;\r\n    }\r\n\r\n    /**\r\n      * @dev Decrease the amount of tokens that an owner allowed to a spender.\r\n      *     approve should be called when allowed[_spender] == 0. To decrement\r\n      *     allowed value is better to use this function to avoid 2 calls (and wait until\r\n      *     the first transaction is mined)\r\n      *     From MonolithDAO Token.sol\r\n      * @param _spender          : The address which will spend the funds.\r\n      * @param _subtractedValue  : The amount of tokens to decrease the allowance by.\r\n      */\r\n    function decreaseApproval(\r\n        address _spender,\r\n        uint256 _subtractedValue\r\n    )\r\n        public\r\n        returns (bool)\r\n    {\r\n        uint256 oldValue = allowed[msg.sender][_spender];\r\n        if (_subtractedValue >= oldValue) {\r\n            allowed[msg.sender][_spender] = 0;\r\n        } else {\r\n            allowed[msg.sender][_spender] = oldValue.sub(_subtractedValue);\r\n        }\r\n        emit Approval(msg.sender, _spender, allowed[msg.sender][_spender]);\r\n        return true;\r\n    }\r\n\r\n    /**\r\n    ----------------------------------------------------\r\n    view functions\r\n    ----------------------------------------------------            \r\n */\r\n\r\n    /**\r\n      * @dev Function to check the amount of tokens that an owner allowed to a spender.\r\n      * @param _owner    : address The address which owns the funds.\r\n      * @param _spender  : address The address which will spend the funds.\r\n      * @return A uint256 specifying the amount of tokens still available for the spender.\r\n      */\r\n    function allowance(\r\n        address _owner,\r\n        address _spender\r\n     )\r\n        public\r\n        view\r\n        returns (uint256 remaining)\r\n    {\r\n        remaining = allowed[_owner][_spender];\r\n    }\r\n\r\n    /**\r\n      * @return the total supply of tokens.\r\n      */\r\n    function totalSupply() public view returns (uint256) {\r\n        return totalSupply_;\r\n    }\r\n\r\n    /**\r\n      * @dev Gets the balance of the specified address.\r\n      * @param _owner The address to query the the balance of.\r\n      * @return An uint256 representing the amount owned by the passed address.\r\n      */\r\n    function balanceOf(address _owner) public view returns (uint256) {\r\n        return balances[_owner];\r\n    }\r\n}\r\n",
  "sourcePath": "C:\\Users\\Veronica Coutts\\Desktop\\Desktop\\Work\\LinumLabs\\proteav2\\contracts\\contracts\\PseudoDaiToken.sol",
  "compiler": {
    "name": "solc",
    "version": "0.4.24+commit.e67f0147.Emscripten.clang"
  },
  "schemaVersion": "2.0.1",
  "updatedAt": "2018-11-26T15:38:45.502Z"
}