{
  "contractName": "RewardManager",
  "abi": [
    {
      "constant": true,
      "inputs": [
        {
          "name": "",
          "type": "address"
        }
      ],
      "name": "approvedIssuer",
      "outputs": [
        {
          "name": "",
          "type": "bool"
        }
      ],
      "payable": false,
      "stateMutability": "view",
      "type": "function"
    },
    {
      "constant": true,
      "inputs": [
        {
          "name": "",
          "type": "address"
        }
      ],
      "name": "reputation",
      "outputs": [
        {
          "name": "",
          "type": "uint256"
        }
      ],
      "payable": false,
      "stateMutability": "view",
      "type": "function"
    },
    {
      "inputs": [],
      "payable": false,
      "stateMutability": "nonpayable",
      "type": "constructor"
    },
    {
      "anonymous": false,
      "inputs": [
        {
          "indexed": true,
          "name": "account",
          "type": "address"
        },
        {
          "indexed": false,
          "name": "amount",
          "type": "uint256"
        }
      ],
      "name": "RewardClaimed",
      "type": "event"
    },
    {
      "constant": false,
      "inputs": [
        {
          "name": "_issuer",
          "type": "address"
        }
      ],
      "name": "addIssuer",
      "outputs": [],
      "payable": false,
      "stateMutability": "nonpayable",
      "type": "function"
    },
    {
      "constant": true,
      "inputs": [
        {
          "name": "_account",
          "type": "address"
        }
      ],
      "name": "reputationOf",
      "outputs": [
        {
          "name": "",
          "type": "uint256"
        }
      ],
      "payable": false,
      "stateMutability": "view",
      "type": "function"
    },
    {
      "constant": false,
      "inputs": [
        {
          "name": "_issuer",
          "type": "address"
        },
        {
          "name": "_index",
          "type": "uint256"
        }
      ],
      "name": "claimReward",
      "outputs": [],
      "payable": false,
      "stateMutability": "nonpayable",
      "type": "function"
    }
  ],
  "bytecode": "0x608060405234801561001057600080fd5b5060028054600160a060020a031916331790556104eb806100326000396000f30060806040526004361061006b5763ffffffff7c01000000000000000000000000000000000000000000000000000000006000350416622a62008114610070578063174e31c4146100b257806320694db0146100e5578063b9f7945114610113578063db89c04414610153575b600080fd5b34801561007c57600080fd5b5061009e73ffffffffffffffffffffffffffffffffffffffff60043516610181565b604080519115158252519081900360200190f35b3480156100be57600080fd5b506100e373ffffffffffffffffffffffffffffffffffffffff60043516602435610196565b005b3480156100f157600080fd5b506100e373ffffffffffffffffffffffffffffffffffffffff600435166103ce565b34801561011f57600080fd5b5061014173ffffffffffffffffffffffffffffffffffffffff60043516610485565b60408051918252519081900360200190f35b34801561015f57600080fd5b5061014173ffffffffffffffffffffffffffffffffffffffff60043516610497565b60006020819052908152604090205460ff1681565b73ffffffffffffffffffffffffffffffffffffffff82166000908152602081905260408120548190819060ff16151561023057604080517f08c379a000000000000000000000000000000000000000000000000000000000815260206004820152601f60248201527f4d6f64756c6564206e6f7420617574686f7269656420746f2072657761726400604482015290519081900360640190fd5b604080517f117de2fd00000000000000000000000000000000000000000000000000000000815233600482015260248101869052905186945084935073ffffffffffffffffffffffffffffffffffffffff84169163117de2fd9160448083019260209291908290030181600087803b1580156102ab57600080fd5b505af11580156102bf573d6000803e3d6000fd5b505050506040513d60208110156102d557600080fd5b5051604080517fa9059cbb00000000000000000000000000000000000000000000000000000000815233600482015260248101839052905191925073ffffffffffffffffffffffffffffffffffffffff84169163a9059cbb916044808201926020929091908290030181600087803b15801561035057600080fd5b505af1158015610364573d6000803e3d6000fd5b505050506040513d602081101561037a57600080fd5b50503360008181526001602090815260409182902080546096019055815184815291517f106f923f993c2149d49b4255ff723acafa1f2d94393f561d3eda32ae348f72419281900390910190a25050505050565b60025473ffffffffffffffffffffffffffffffffffffffff16331461045457604080517f08c379a000000000000000000000000000000000000000000000000000000000815260206004820152601360248201527f55736572206e6f7420617574686f726973656400000000000000000000000000604482015290519081900360640190fd5b73ffffffffffffffffffffffffffffffffffffffff166000908152602081905260409020805460ff19166001179055565b60016020526000908152604090205481565b73ffffffffffffffffffffffffffffffffffffffff16600090815260016020526040902054905600a165627a7a72305820f5c93cb211c52ca3e4439e122a6cac4d2e9a67dabd6c563ef16af7609b795f9c0029",
  "source": "pragma solidity ^0.4.24;\r\n\r\nimport \"./openzeppelin-solidity/token/ERC20/IERC20.sol\";\r\nimport \"./RewardIssuerInterface.sol\";\r\n\r\ncontract RewardManager {\r\n    mapping (address => bool) public approvedIssuer;\r\n\r\n    mapping (address => uint256) public reputation;\r\n\r\n    event RewardClaimed(address indexed account, uint256 amount);\r\n\r\n    address internal admin;\r\n\r\n    constructor() public{\r\n        admin = msg.sender;\r\n    }\r\n\r\n    modifier onlyAdmin() {\r\n        require(msg.sender == admin, \"User not authorised\");\r\n        _;\r\n    }\r\n\r\n    function addIssuer(address _issuer) public onlyAdmin{\r\n        approvedIssuer[_issuer] = true;\r\n    }\r\n\r\n    function reputationOf(address _account) public view returns(uint256) {\r\n        return (reputation[_account]);\r\n    }\r\n\r\n    /// Need to return struct to have dynamic reputation tracking\r\n    function claimReward(address _issuer, uint256 _index) public {\r\n        require(approvedIssuer[_issuer], \"Moduled not authoried to reward\");\r\n        RewardIssuerInterface issuer = RewardIssuerInterface(_issuer);\r\n        IERC20 token = IERC20(_issuer);\r\n        uint256 payout = issuer.payout(msg.sender, _index);\r\n        token.transfer(msg.sender, payout);    \r\n        reputation[msg.sender] += 150; // To be dynamic with strut returns\r\n        emit RewardClaimed(msg.sender, payout);\r\n    }\r\n\r\n}",
  "sourcePath": "C:\\Users\\Veronica Coutts\\Desktop\\Desktop\\Work\\LinumLabs\\proteav2\\contracts\\contracts\\RewardManager.sol",
  "compiler": {
    "name": "solc",
    "version": "0.4.24+commit.e67f0147.Emscripten.clang"
  },
  "schemaVersion": "2.0.1",
  "updatedAt": "2018-11-26T15:38:45.512Z"
}