{
  "contractName": "TokenManager",
  "abi": [
    {
      "constant": true,
      "inputs": [],
      "name": "gradient",
      "outputs": [
        {
          "name": "",
          "type": "uint256"
        }
      ],
      "payable": false,
      "stateMutability": "view",
      "type": "function"
    },
    {
      "constant": true,
      "inputs": [],
      "name": "name",
      "outputs": [
        {
          "name": "",
          "type": "string"
        }
      ],
      "payable": false,
      "stateMutability": "view",
      "type": "function"
    },
    {
      "constant": true,
      "inputs": [],
      "name": "decimals",
      "outputs": [
        {
          "name": "",
          "type": "uint256"
        }
      ],
      "payable": false,
      "stateMutability": "view",
      "type": "function"
    },
    {
      "constant": true,
      "inputs": [],
      "name": "symbol",
      "outputs": [
        {
          "name": "",
          "type": "bytes32"
        }
      ],
      "payable": false,
      "stateMutability": "view",
      "type": "function"
    },
    {
      "constant": true,
      "inputs": [],
      "name": "poolBalance",
      "outputs": [
        {
          "name": "",
          "type": "uint256"
        }
      ],
      "payable": false,
      "stateMutability": "view",
      "type": "function"
    },
    {
      "constant": true,
      "inputs": [],
      "name": "reserveToken",
      "outputs": [
        {
          "name": "",
          "type": "address"
        }
      ],
      "payable": false,
      "stateMutability": "view",
      "type": "function"
    },
    {
      "inputs": [
        {
          "name": "_name",
          "type": "string"
        },
        {
          "name": "_symbol",
          "type": "bytes32"
        },
        {
          "name": "_reserveToken",
          "type": "address"
        }
      ],
      "payable": false,
      "stateMutability": "nonpayable",
      "type": "constructor"
    },
    {
      "anonymous": false,
      "inputs": [
        {
          "indexed": true,
          "name": "owner",
          "type": "address"
        },
        {
          "indexed": true,
          "name": "spender",
          "type": "address"
        },
        {
          "indexed": false,
          "name": "value",
          "type": "uint256"
        }
      ],
      "name": "Approval",
      "type": "event"
    },
    {
      "anonymous": false,
      "inputs": [
        {
          "indexed": true,
          "name": "from",
          "type": "address"
        },
        {
          "indexed": true,
          "name": "to",
          "type": "address"
        },
        {
          "indexed": false,
          "name": "value",
          "type": "uint256"
        }
      ],
      "name": "Transfer",
      "type": "event"
    },
    {
      "anonymous": false,
      "inputs": [
        {
          "indexed": true,
          "name": "from",
          "type": "address"
        },
        {
          "indexed": true,
          "name": "to",
          "type": "address"
        },
        {
          "indexed": false,
          "name": "value",
          "type": "uint256"
        },
        {
          "indexed": false,
          "name": "data",
          "type": "bytes"
        }
      ],
      "name": "Transfer",
      "type": "event"
    },
    {
      "anonymous": false,
      "inputs": [
        {
          "indexed": false,
          "name": "amount",
          "type": "uint256"
        },
        {
          "indexed": false,
          "name": "totalCost",
          "type": "uint256"
        }
      ],
      "name": "Minted",
      "type": "event"
    },
    {
      "anonymous": false,
      "inputs": [
        {
          "indexed": false,
          "name": "amount",
          "type": "uint256"
        },
        {
          "indexed": false,
          "name": "reward",
          "type": "uint256"
        }
      ],
      "name": "Burned",
      "type": "event"
    },
    {
      "constant": true,
      "inputs": [],
      "name": "totalSupply",
      "outputs": [
        {
          "name": "_totalSupply",
          "type": "uint256"
        }
      ],
      "payable": false,
      "stateMutability": "view",
      "type": "function"
    },
    {
      "constant": true,
      "inputs": [
        {
          "name": "_owner",
          "type": "address"
        },
        {
          "name": "_spender",
          "type": "address"
        }
      ],
      "name": "allowance",
      "outputs": [
        {
          "name": "",
          "type": "uint256"
        }
      ],
      "payable": false,
      "stateMutability": "view",
      "type": "function"
    },
    {
      "constant": false,
      "inputs": [
        {
          "name": "_from",
          "type": "address"
        },
        {
          "name": "_to",
          "type": "address"
        },
        {
          "name": "_value",
          "type": "uint256"
        }
      ],
      "name": "transferFrom",
      "outputs": [
        {
          "name": "success",
          "type": "bool"
        }
      ],
      "payable": false,
      "stateMutability": "nonpayable",
      "type": "function"
    },
    {
      "constant": false,
      "inputs": [
        {
          "name": "_spender",
          "type": "address"
        },
        {
          "name": "_value",
          "type": "uint256"
        }
      ],
      "name": "approve",
      "outputs": [
        {
          "name": "success",
          "type": "bool"
        }
      ],
      "payable": false,
      "stateMutability": "nonpayable",
      "type": "function"
    },
    {
      "constant": true,
      "inputs": [
        {
          "name": "_owner",
          "type": "address"
        }
      ],
      "name": "balanceOf",
      "outputs": [
        {
          "name": "balance",
          "type": "uint256"
        }
      ],
      "payable": false,
      "stateMutability": "view",
      "type": "function"
    },
    {
      "constant": false,
      "inputs": [
        {
          "name": "_to",
          "type": "address"
        },
        {
          "name": "_value",
          "type": "uint256"
        }
      ],
      "name": "transfer",
      "outputs": [
        {
          "name": "success",
          "type": "bool"
        }
      ],
      "payable": false,
      "stateMutability": "nonpayable",
      "type": "function"
    },
    {
      "constant": false,
      "inputs": [
        {
          "name": "_to",
          "type": "address"
        },
        {
          "name": "_value",
          "type": "uint256"
        },
        {
          "name": "_data",
          "type": "bytes"
        }
      ],
      "name": "transfer",
      "outputs": [],
      "payable": false,
      "stateMutability": "nonpayable",
      "type": "function"
    },
    {
      "constant": true,
      "inputs": [
        {
          "name": "numTokens",
          "type": "uint256"
        }
      ],
      "name": "priceToMint",
      "outputs": [
        {
          "name": "",
          "type": "uint256"
        }
      ],
      "payable": false,
      "stateMutability": "view",
      "type": "function"
    },
    {
      "constant": true,
      "inputs": [
        {
          "name": "numTokens",
          "type": "uint256"
        }
      ],
      "name": "rewardForBurn",
      "outputs": [
        {
          "name": "",
          "type": "uint256"
        }
      ],
      "payable": false,
      "stateMutability": "view",
      "type": "function"
    },
    {
      "constant": false,
      "inputs": [
        {
          "name": "numTokens",
          "type": "uint256"
        }
      ],
      "name": "burn",
      "outputs": [],
      "payable": false,
      "stateMutability": "nonpayable",
      "type": "function"
    },
    {
      "constant": false,
      "inputs": [
        {
          "name": "numTokens",
          "type": "uint256"
        }
      ],
      "name": "mint",
      "outputs": [],
      "payable": false,
      "stateMutability": "nonpayable",
      "type": "function"
    }
  ],
  "bytecode": "0x608060405265e35fa931a000600455670de0b6b3a764000060055534801561002657600080fd5b50604051610d7e380380610d7e833981016040908152815160208084015192840151919093018051909361005f9160029186019061008b565b5060039190915560068054600160a060020a031916600160a060020a0390921691909117905550610126565b828054600181600116156101000203166002900490600052602060002090601f016020900481019282601f106100cc57805160ff19168380011785556100f9565b828001600101855582156100f9579182015b828111156100f95782518255916020019190600101906100de565b50610105929150610109565b5090565b61012391905b80821115610105576000815560010161010f565b90565b610c49806101356000396000f3006080604052600436106100f05763ffffffff7c01000000000000000000000000000000000000000000000000000000006000350416630525a36c81146100f557806306fdde031461011c578063095ea7b3146101a657806318160ddd146101de57806323b872dd146101f3578063313ce5671461021d57806342966c681461023257806370a082311461024c57806395d89b411461026d57806396365d4414610282578063a0712d6814610297578063a9059cbb146102af578063b9d36743146102d3578063be45fd62146102eb578063c544682b14610354578063dd62ed3e1461036c578063f4325d6714610393575b600080fd5b34801561010157600080fd5b5061010a6103c4565b60408051918252519081900360200190f35b34801561012857600080fd5b506101316103ca565b6040805160208082528351818301528351919283929083019185019080838360005b8381101561016b578181015183820152602001610153565b50505050905090810190601f1680156101985780820380516001836020036101000a031916815260200191505b509250505060405180910390f35b3480156101b257600080fd5b506101ca600160a060020a0360043516602435610455565b604080519115158252519081900360200190f35b3480156101ea57600080fd5b5061010a6104bb565b3480156101ff57600080fd5b506101ca600160a060020a03600435811690602435166044356104c1565b34801561022957600080fd5b5061010a610606565b34801561023e57600080fd5b5061024a60043561060c565b005b34801561025857600080fd5b5061010a600160a060020a036004351661076d565b34801561027957600080fd5b5061010a610788565b34801561028e57600080fd5b5061010a61078e565b3480156102a357600080fd5b5061024a600435610794565b3480156102bb57600080fd5b506101ca600160a060020a036004351660243561094c565b3480156102df57600080fd5b5061010a600435610a2d565b3480156102f757600080fd5b50604080516020600460443581810135601f810184900484028501840190955284845261024a948235600160a060020a0316946024803595369594606494920191908190840183828082843750949750610a649650505050505050565b34801561036057600080fd5b5061010a600435610aeb565b34801561037857600080fd5b5061010a600160a060020a0360043581169060243516610b17565b34801561039f57600080fd5b506103a8610b42565b60408051600160a060020a039092168252519081900360200190f35b60045481565b6002805460408051602060018416156101000260001901909316849004601f8101849004840282018401909252818152929183018282801561044d5780601f106104225761010080835404028352916020019161044d565b820191906000526020600020905b81548152906001019060200180831161043057829003601f168201915b505050505081565b336000818152600860209081526040808320600160a060020a038716808552908352818420869055815186815291519394909390927f8c5be1e5ebec7d5bd14f71427d1e84f3dd0314c0f7b2291e5b200ac8c7c3b925928290030190a350600192915050565b60005490565b600160a060020a0383166000908152600760205260408120548211156104e657600080fd5b600160a060020a038416600090815260086020908152604080832033845290915290205482111561051657600080fd5b600160a060020a038316151561052b57600080fd5b600160a060020a038416600090815260076020526040902054610554908363ffffffff610b5116565b600160a060020a038086166000908152600760205260408082209390935590851681522054610589908363ffffffff610b6f16565b600160a060020a038416600090815260076020526040812091909155546105b6908363ffffffff610b6f16565b600055604080518381529051600160a060020a0380861692908716917fddf252ad1be2c89b69c2b068fc378daa952ba7f163c4a11628f55a4df523b3ef9181900360200190a35060019392505050565b60055481565b3360009081526007602052604081205482111561062857600080fd5b61063182610aeb565b600054909150610647908363ffffffff610b5116565b600090815533815260076020526040902054610669908363ffffffff610b5116565b3360009081526007602052604090205560015461068c908263ffffffff610b5116565b600155600654604080517f23b872dd000000000000000000000000000000000000000000000000000000008152306004820152336024820152604481018490529051600160a060020a03909216916323b872dd916064808201926020929091908290030181600087803b15801561070257600080fd5b505af1158015610716573d6000803e3d6000fd5b505050506040513d602081101561072c57600080fd5b5050604080518381526020810183905281517fcec1bae6e024d929f2929f3478ce70f55f9c636c8ef7b5073a61d7c3a432451b929181900390910190a15050565b600160a060020a031660009081526007602052604090205490565b60035481565b60015481565b600061079f82610a2d565b600654604080517f23b872dd000000000000000000000000000000000000000000000000000000008152336004820152306024820152604481018490529051929350600160a060020a03909116916323b872dd916064808201926020929091908290030181600087803b15801561081557600080fd5b505af1158015610829573d6000803e3d6000fd5b505050506040513d602081101561083f57600080fd5b505115156108ae57604080517f08c379a000000000000000000000000000000000000000000000000000000000815260206004820152601f60248201527f52657175697265207472616e7366657246726f6d20746f207375636365656400604482015290519081900360640190fd5b6000546108c1908363ffffffff610b6f16565b6000556001546108d7908263ffffffff610b6f16565b600155336000908152600760205260409020546108fa908363ffffffff610b6f16565b3360009081526007602090815260409182902092909255805184815291820183905280517f8a9dcf4e150b1153011b29fec302d5be0c13e84fa8f56ab78587f778a32a90dd9281900390910190a15050565b3360009081526007602052604081205482111561096857600080fd5b600160a060020a038316151561097d57600080fd5b3360009081526007602052604090205461099d908363ffffffff610b5116565b3360009081526007602052604080822092909255600160a060020a038516815220546109cf908363ffffffff610b6f16565b600160a060020a0384166000818152600760209081526040918290209390935580518581529051919233927fddf252ad1be2c89b69c2b068fc378daa952ba7f163c4a11628f55a4df523b3ef9281900390910190a350600192915050565b6000610a5e600154610a52610a4d85600054610b6f90919063ffffffff16565b610b88565b9063ffffffff610b5116565b92915050565b30600160a060020a03168160405180828051906020019080838360005b83811015610a99578181015183820152602001610a81565b50505050905090810190601f168015610ac65780820380516001836020036101000a031916815260200191505b509150506000604051808303816000865af19150501515610ae657600080fd5b505050565b6000610a5e610b08610a4d84600054610b5190919063ffffffff16565b6001549063ffffffff610b5116565b600160a060020a03918216600090815260086020908152604080832093909416825291909152205490565b600654600160a060020a031681565b60008083831115610b6157600080fd5b5050808203805b5092915050565b600082820183811015610b8157600080fd5b9392505050565b600080610b9b818463ffffffff610bcc16565b610bc46002610bb86002870a600454610bcc90919063ffffffff16565b9063ffffffff610bfa16565b019392505050565b600080831515610bdf5760009150610b68565b50828202828482811515610bef57fe5b0414610b8157600080fd5b600080808311610c0957600080fd5b8284811515610c1457fe5b049493505050505600a165627a7a723058202cb6c9ebd17fa01464b61f6d0bbe6588126fccce2260eb12588cf4174bd72d500029",
  "source": "pragma solidity ^0.4.24;\r\n\r\nimport \"./ERC223/ERC223.sol\";\r\nimport \"./openzeppelin-solidity/token/ERC20/IERC20.sol\";\r\nimport \"./openzeppelin-solidity/math/SafeMath.sol\";\r\n\r\ncontract TokenManager is ERC223 {\r\n    using SafeMath for uint256;\r\n    uint256 internal totalSupply_;\r\n    uint256 public poolBalance;\r\n    string public name;\r\n    bytes32 public symbol;\r\n    uint256 public gradient = 2.5*10**14; //NB: this must be a gradient of wei/tokens\r\n    uint256 public decimals = 10**18; //For now, assume Eth as base collateral\r\n    address public reserveToken;\r\n\r\n    mapping(address => uint256) internal balances;\r\n    mapping (address => mapping (address => uint256)) internal allowed;\r\n\r\n    event Approval(\r\n      address indexed owner,\r\n      address indexed spender,\r\n      uint256 value\r\n    );\r\n    event Transfer(address indexed from, address indexed to, uint value);\r\n    event Transfer(address indexed from, address indexed to, uint value, bytes data);\r\n    event Minted(uint256 amount, uint256 totalCost);\r\n    event Burned(uint256 amount, uint256 reward);\r\n\r\n    constructor(\r\n        string _name,\r\n        bytes32 _symbol,\r\n        address _reserveToken\r\n    ) \r\n        public\r\n    {\r\n        name = _name;\r\n        symbol = _symbol;\r\n        reserveToken = _reserveToken;\r\n    }\r\n\r\n    function totalSupply() \r\n        public \r\n        view\r\n        returns (uint256 _totalSupply) \r\n    {\r\n        return totalSupply_;\r\n    }\r\n\r\n    function allowance(address _owner, address _spender) \r\n        public \r\n        view \r\n        returns (uint256) \r\n    {\r\n        return allowed[_owner][_spender];\r\n    }\r\n\r\n    /**\r\n      * @dev Transfer tokens from one address to another\r\n      * @param _from     : address The address which you want to send tokens from\r\n      * @param _to       : address The address which you want to transfer to\r\n      * @param _value    : uint256 the amount of tokens to be transferred\r\n      */\r\n    function transferFrom(\r\n        address _from,\r\n        address _to,\r\n        uint256 _value\r\n    )\r\n        public\r\n        returns (bool success)\r\n    {\r\n        require(_value <= balances[_from]);\r\n        require(_value <= allowed[_from][msg.sender]);\r\n        require(_to != address(0));\r\n\r\n        balances[_from] = balances[_from].sub(_value);\r\n        balances[_to] = balances[_to].add(_value);\r\n        // allowed[_from][msg.sender] = allowed[_from][msg.sender].sub(_value);\r\n        totalSupply_ = totalSupply_.add(_value);\r\n        emit Transfer(_from, _to, _value);\r\n        success = true;\r\n    }\r\n    \r\n    function approve(\r\n        address _spender, \r\n        uint256 _value\r\n    ) \r\n        public \r\n        returns (bool success) \r\n    {\r\n        allowed[msg.sender][_spender] = _value;\r\n        emit Approval(msg.sender, _spender, _value);\r\n        success = true;\r\n    }\r\n\r\n    function balanceOf(address _owner) \r\n        public \r\n        view\r\n        returns (uint256 balance) \r\n    {\r\n        return balances[_owner];\r\n    }\r\n\r\n    function transfer(\r\n        address _to, \r\n        uint256 _value\r\n    ) \r\n        public \r\n        returns (bool success) \r\n    {\r\n        require(_value <= balances[msg.sender]);\r\n        require(_to != address(0));\r\n\r\n        balances[msg.sender] = balances[msg.sender].sub(_value);\r\n        balances[_to] = balances[_to].add(_value);\r\n        emit Transfer(msg.sender, _to, _value);\r\n        return true;\r\n    }\r\n    \r\n    function transfer(address _to, uint _value, bytes _data) public {\r\n        require(this.call(_data));\r\n    }\r\n\r\n    /// @dev        Calculate the integral from 0 to x tokens supply\r\n    /// @param x    The number of tokens supply to integrate to\r\n    /// @return     The total supply in tokens, not wei\r\n    function curveIntegral(uint256 x) internal view returns (uint256) {\r\n        // y = gradient*x + c\r\n        uint256 c = 0;\r\n\r\n        // We'd ideally (for a nice curve, and easy values to work with?)\r\n        // like 20 tokens to be priced at $1, or some gradient in that range\r\n\r\n        // $1 in Eth is approx 0.005\r\n        // 0.005 Eth is 5*10**15 wei\r\n\r\n        // So the gradient we want, working with wei, is y/x=wei/tokens, or 5*10**15/20 = 2.5*10**14\r\n        // We must remember to define gradient in wei, and convert after ~ we can't work with floating points\r\n\r\n        // Calculate integral of y = gradient*x + c >> 0.5mx^2 + cx; where c = 0\r\n        // 1 Ether is 10**18 wei, which gives 18 decimal places to work with\r\n        return gradient.mul(x**2).div(2) + c.mul(x);\r\n        //return decimals*mul(gradient, x**2).div(2*decimals) + mul(c, x);\r\n    }\r\n\r\n    /// @return  Price, in wei, for mint\r\n    function priceToMint(uint256 numTokens) public view returns(uint256) {\r\n        return curveIntegral(totalSupply_.add(numTokens)).sub(poolBalance);\r\n    }\r\n\r\n    /// @return  Reward, in wei, for burn\r\n    function rewardForBurn(uint256 numTokens) public view returns(uint256) {\r\n        return poolBalance.sub(curveIntegral(totalSupply_.sub(numTokens)));\r\n    }\r\n\r\n    /// @dev                    Burn tokens to receive ether\r\n    /// @param numTokens        The number of tokens that you want to burn\r\n    /// @dev rewardForTokens    Value in wei, for tokens burned\r\n    function burn(uint256 numTokens) public {\r\n        require(balances[msg.sender] >= numTokens);\r\n\r\n        uint256 rewardForTokens = rewardForBurn(numTokens);\r\n        totalSupply_ = totalSupply_.sub(numTokens);\r\n        balances[msg.sender] = balances[msg.sender].sub(numTokens);\r\n        poolBalance = poolBalance.sub(rewardForTokens);\r\n        IERC20(reserveToken).transferFrom(this, msg.sender, rewardForTokens); // @TODO: Need to confirm this is correct\r\n\r\n        emit Burned(numTokens, rewardForTokens);\r\n    }\r\n\r\n    /// @dev                    Mint new tokens with ether\r\n    /// @param numTokens        The number of tokens you want to mint\r\n    /// @dev priceForTokens     Value in wei, for tokens minted\r\n    /// Notes: We have modified the minting function to tax the purchase tokens\r\n    /// This behaves as a sort of stake on buyers to participate even at a small scale\r\n    function mint(uint256 numTokens) public {\r\n        uint256 priceForTokens = priceToMint(numTokens);\r\n        require(IERC20(reserveToken).transferFrom(msg.sender, this, priceForTokens), \"Require transferFrom to succeed\");// @TODO: Need to confirm this is correct\r\n        totalSupply_ = totalSupply_.add(numTokens);\r\n        poolBalance = poolBalance.add(priceForTokens);\r\n        balances[msg.sender] = balances[msg.sender].add(numTokens);\r\n        emit Minted(numTokens, priceForTokens);\r\n    }\r\n}",
  "sourcePath": "C:\\Users\\Veronica Coutts\\Desktop\\Desktop\\Work\\LinumLabs\\proteav2\\contracts\\contracts\\TokenManager.sol",
  "compiler": {
    "name": "solc",
    "version": "0.4.24+commit.e67f0147.Emscripten.clang"
  },
  "schemaVersion": "2.0.1",
  "updatedAt": "2018-11-26T15:38:45.515Z"
}